:020000040000fa
:04005c00e0020000be
:020000040000fa
:04001000e00200000a
:020000040000fa
:04025c00e0020000bc
:020000040000fa
:04021000e002000008
:020000040000fa
:04027400e0020000a4
:020000040000fa
:04033400e0020000e3
:020000040000fa
:04035c00e0020000bb
:020000040000fa
:04027000e0020000a8
:020000040000fa
:04034800e0020000cf
:020000040000fa
:04022c00e0020000ec
:020000040000fa
:04022800e0020000f0
:020000040000fa
:04027800e0020000a0
:020000040000fa
:04029c00e00200007c
:020000040000fa
:04026000e0020000b8
:020000040000fa
:04027c00e00200009c
:020000040000fa
:04028000e002000098
:020000040000fa
:04028400e002000094
:020000040000fa
:04028800e002000090
:020000040000fa
:04028c00e00200008c
:020000040000fa
:04029000e002000088
:020000040000fa
:04029400e002000084
:020000040000fa
:04029800e002000080
:020000040000fa
:0402a800e002000070
:020000040000fa
:0402ac00e00200006c
:020000040000fa
:0402b000e002000068
:020000040000fa
:0402b400e002000064
:020000040000fa
:0402b800e002000060
:020000040000fa
:0402bc00e00200005c
:020000040000fa
:0402c000e002000058
:020000040000fa
:0402c400e002000054
:020000040000fa
:04023800e0020000e0
:020000040000fa
:0402c800e002000050
:020000040000fa
:0402cc00e00200004c
:020000040000fa
:0402d000e002000048
:020000040000fa
:0402d400e002000044
:020000040000fa
:0402d800e002000040
:020000040000fa
:0402dc00e00200003c
:020000040000fa
:0402e000e002000038
:020000040000fa
:0402e400e002000034
:020000040000fa
:0402e800e002000030
:020000040000fa
:0402ec00e00200002c
:020000040000fa
:04023c00e0020000dc
:020000040000fa
:0402f000e002000028
:020000040000fa
:0402f400e002000024
:020000040000fa
:0402f800e002000020
:020000040000fa
:0402fc00e00200001c
:020000040000fa
:04030000e002000017
:020000040000fa
:04030400e002000013
:020000040000fa
:04030800e00200000f
:020000040000fa
:04030c00e00200000b
:020000040000fa
:04031000e002000007
:020000040000fa
:04031400e002000003
:020000040000fa
:04024000e0020000d8
:020000040000fa
:04031800e0020000ff
:020000040000fa
:04031c00e0020000fb
:020000040000fa
:04032400e0020000f3
:020000040000fa
:04032800e0020000ef
:020000040000fa
:04033800e0020000df
:020000040000fa
:04033c00e0020000db
:020000040000fa
:04034000e0020000d7
:020000040000fa
:04034400e0020000d3
:020000040000fa
:04034c00e0020000cb
:020000040000fa
:04035000e0020000c7
:020000040000fa
:04035400e0020000c3
:020000040000fa
:04035800e0020000bf
:020000040000fa
:04026c00e0020000ac
:020000040000fa
:04021800e002000000
:020000040000fa
:04026400e0020000b4
:020000040000fa
:04023000e0020000e8
:020000040000fa
:04020c00e00200000c
:020000040000fa
:04032000e0020000f7
:020000040000fa
:04020800e002000010
:020000040000fa
:04021c00e0020000fc
:020000040000fa
:04022000e0020000f8
:020000040000fa
:04022400e0020000f4
:020000040000fa
:04026800e0020000b0
:020000040000fa
:04024c00e0020000cc
:020000040000fa
:04025000e0020000c8
:020000040000fa
:04021400e002000004
:020000040000fa
:04023400c8020000fc
:020000040000fa
:04024400e0020000d4
:020000040000fa
:04024800e0020000d0
:020000040000fa
:04032c00e0020000eb
:020000040000fa
:04025400e0020000c4
:020000040000fa
:04025800e0020000c0
:020000040000fa
:04033000e0020000e7
:020000040000fa
:0402a000e002000078
:020000040000fa
:0402a400e002000074
:020000040000fa
:04007400e0020000a6
:020000040000fa
:04013400e0020000e5
:020000040000fa
:04015c00e0020000bd
:020000040000fa
:04007000e0020000aa
:020000040000fa
:04014800e0020000d1
:020000040000fa
:04002c00e0020000ee
:020000040000fa
:04002800e0020000f2
:020000040000fa
:04007800e0020000a2
:020000040000fa
:04009c00e00200007e
:020000040000fa
:04006000e0020000ba
:020000040000fa
:04007c00e00200009e
:020000040000fa
:04008000e00200009a
:020000040000fa
:04008400e002000096
:020000040000fa
:04008800e002000092
:020000040000fa
:04008c00e00200008e
:020000040000fa
:04009000e00200008a
:020000040000fa
:04009400e002000086
:020000040000fa
:04009800e002000082
:020000040000fa
:0400a800e002000072
:020000040000fa
:0400ac00e00200006e
:020000040000fa
:0400b000e00200006a
:020000040000fa
:0400b400e002000066
:020000040000fa
:0400b800e002000062
:020000040000fa
:0400bc00e00200005e
:020000040000fa
:0400c000e00200005a
:020000040000fa
:0400c400e002000056
:020000040000fa
:04003800e0020000e2
:020000040000fa
:0400c800e002000052
:020000040000fa
:0400cc00e00200004e
:020000040000fa
:0400d000e00200004a
:020000040000fa
:0400d400e002000046
:020000040000fa
:0400d800e002000042
:020000040000fa
:0400dc00e00200003e
:020000040000fa
:0400e000e00200003a
:020000040000fa
:0400e400e002000036
:020000040000fa
:0400e800e002000032
:020000040000fa
:0400ec00e00200002e
:020000040000fa
:04003c00e0020000de
:020000040000fa
:0400f000e00200002a
:020000040000fa
:0400f400e002000026
:020000040000fa
:0400f800e002000022
:020000040000fa
:0400fc00e00200001e
:020000040000fa
:04010000e002000019
:020000040000fa
:04010400e002000015
:020000040000fa
:04010800e002000011
:020000040000fa
:04010c00e00200000d
:020000040000fa
:04011000e002000009
:020000040000fa
:04011400e002000005
:020000040000fa
:04004000e0020000da
:020000040000fa
:04011800e002000001
:020000040000fa
:04011c00e0020000fd
:020000040000fa
:04012400e0020000f5
:020000040000fa
:04012800e0020000f1
:020000040000fa
:04013800e0020000e1
:020000040000fa
:04013c00e0020000dd
:020000040000fa
:04014000e0020000d9
:020000040000fa
:04014400e0020000d5
:020000040000fa
:04014c00e0020000cd
:020000040000fa
:04015000e0020000c9
:020000040000fa
:04015400e0020000c5
:020000040000fa
:04015800e0020000c1
:020000040000fa
:04006c00e0020000ae
:020000040000fa
:04001800e002000002
:020000040000fa
:04006400e0020000b6
:020000040000fa
:04003000e0020000ea
:020000040000fa
:04000c00e00200000e
:020000040000fa
:04012000e0020000f9
:020000040000fa
:04000800e002000012
:020000040000fa
:04001c00e0020000fe
:020000040000fa
:04002000e0020000fa
:020000040000fa
:04002400e0020000f6
:020000040000fa
:04006800e0020000b2
:020000040000fa
:04004c00e0020000ce
:020000040000fa
:04005000e0020000ca
:020000040000fa
:04001400e002000006
:020000040000fa
:04004400e0020000d6
:020000040000fa
:04004800e0020000d2
:020000040000fa
:04012c00e0020000ed
:020000040000fa
:04005400e0020000c6
:020000040000fa
:04005800e0020000c2
:020000040000fa
:04013000e0020000e9
:020000040000fa
:0400a000e00200007a
:020000040000fa
:0400a400e002000076
:020000040000fa
:080000000002040000000000f2
:020000040000fa
:10040000ef8e20000edf20000e01880000000000ab
:10041000000020000000e000020032000001200087
:100420002002880014000700670007000000e000b9
:1004300003003a0020d9200001002000020037000c
:100440000000200001002000810f70000100320038
:1004500014000700000020000000e000020032004d
:100460000000020000000000ce0c020000000000ae
:100470000040da000000fe004440a9000003200014
:100480000000e0000300320000002000a00188000e
:100490004440a800000006008a1f78008b1f7800e7
:1004a0000000060091018800800478000000eb0045
:1004b0001a003700e284440032a0b4009905ba0063
:1004c000e284440032a0b4009906ba00e2844400f9
:1004d00032a0b4000006eb00476fde00fd07b2005b
:1004e000636ce10003003a00ebff07000000eb0043
:1004f0000a003700606ce10004003a00005deb0088
:100500008b05e900fdff3e00040037006168e10053
:10051000010032000086eb000b00070019c7ba008b
:100520001905ba000e04e00003003a000a00e000da
:10053000e0ff3a0000000600fe07b2009e018800be
:100540008a047800f5ff3700395dba008b05e900b1
:100550000c003200295dba008b05e900080032006a
:100560000c00e00003003a00e284440032a0b40032
:10057000f5ff370019ddba008b05e900faff3a00f4
:100580008904e800e184440032a0b40000000600c1
:10059000809fbe000000fa00504780006147800045
:1005a00061004000e08048005047880061478800b3
:1005b0008460a9000080fa004f00be0000400600e1
:1005c0000040da000000fe00000005006022b800d4
:1005d000060220000000d0008180d2000482d200f8
:1005e0008582d2000000a0000202520083825a00dd
:1005f000030031000202420083824a000000a10091
:100600000603e900f3ff3a0000000600889fbe00e1
:100610008a9fbe0030044200b0844a0030054b007f
:1006200090854b006000b1000898be000a90be00a3
:100630000440e10005c8e10006d0e10007d8e10070
:1006400002003100680040001008e8004f05be00bd
:100650004f04be0000000600889fbe008a9fbe00b7
:100660003004be002005be000418540005985c004c
:1006700006185d0007985d00110020000440e100ad
:1006800005c8e10006d0e10007d8e100010039000b
:100690008000eb00108810004f05be004f04be0024
:1006a000000006001200fa00889fbe008a9fbe006c
:1006b0008c9fbe00e0b79f00f1b79f0082bf9f00f4
:1006c00093bf9f000605be000404be000000eb00bf
:1006d000d0b79f00c0b79f00b0b79f00a0b79f00e2
:1006e00090b79f00000678005fb19700cfb09700e9
:1006f000820141003fb097000200e00004003d008d
:10070000370007007e805700c0ff07000300370056
:10071000330007007e805700cfff0700dfb6970049
:100720000d00e0000c0035006fb29700ffb297009b
:100730000fbb97009fbb9700100020000100200016
:100740006011b8000002720081827200020373001f
:10075000838373001b0007000c06e80001042000df
:10076000810f5600e0ff3a000d00e00004003d005c
:100770000802be000a03be007e805700a3ff0700e8
:100780005fa897000000e00005003a001fb2970044
:10079000afb297003fb39700cfb3970009000700af
:1007a0006fb09700ffb097000fb997009fb99700ff
:1007b0004f06be004f05be004f04be000080fa0089
:1007c000000006000100070000000600a4b79f001b
:1007d000b5b79f00c6b79f00d7b79f0000000600bf
:1007e0004f09de0082817100b3b79f004f01de0028
:1007f0008180400082807000a1b79f008fb0970079
:100800004f09de00000040000200700090b79f001a
:100810007fa897004f01de00818040008280700039
:1008200081b79f000d0007004f3ade000000400036
:1008300004007000f0af9f000800070004024200af
:1008400085824a0006034b0087834b00dfff0700c9
:100850000802be000a03be00000006002fb2970087
:10086000bfb297004fb39700dfb3970000000600b8
:10087000881f780018002000881f780089ff070073
:100880008f87e9004f04780000000600801feb000e
:1008900084ff07008f87e90000000600889fbe00e4
:1008a0008a9fbe00e00f5000e08f5800e00f590013
:1008b000e08f59000c003d006044b8006055b8005e
:1008c0000000540081805c0002015d0083815d00b6
:1008d000180020001500070008003d001800070060
:1008e0000004eb00050037000004eb000f000700d8
:1008f00002003d001200070018002000dcff070086
:100900000800e000060032006022b8006033b80042
:100910000000520081805a0002015b0083815b006d
:100920004f05be004f04be0000000600e00f52005d
:10093000e08f5a00e00f5b00e08f5b0000000600d4
:100940006044b8006055b8000402540085825c0021
:1009500006035d0087835d0000000600889fbe00df
:100960008a9fbe008c1f7800e00f5000e08f580077
:10097000e00f5900e08f59000d003d006044b800c1
:100980006055b8000000540081805c0002015d00e9
:1009900083815d001c0020000820e10009a8e1001f
:1009a0000ab0e1000bb8e1000d003d00080037007f
:1009b0000006eb00e00f5200e08f5a00e00f5b00f2
:1009c000e08f5b0006003d006044b8006055b80051
:1009d0000402540085825c0006035d0087835d008d
:1009e000aaff07000c00e000060032006022b800f9
:1009f0006033b8000000520081805a0002015b00a1
:100a000083815b004f0678004f05be004f04be0097
:100a100000000600889fbe008a9fbe008c1f7800e1
:100a20000006eb00e00f5000e08f5800e00f590087
:100a3000e08f590007003d006044b8006055b800e1
:100a40000000540081805c0002015d0083815d0034
:100a50001c002000e00f5200e08f5a00e00f5b0006
:100a6000e08f5b0007003d006044b8006055b800af
:100a70000402540085825c0006035d0087835d00ec
:100a80000c00a2000c0007000c00e0000600320081
:100a90006022b8006033b8000000520081805a0024
:100aa00002015b0083815b004f0678004f05be00aa
:100ab0004f04be0000000600889fbe008a9fbe0053
:100ac0008c9fbe000404b8000506b80089044600e7
:100ad00060854e000606b8000a054600e0854e0017
:100ae0000706b8008b054600040eb80089044600ce
:100af0000a854e00e0854d00050eb8000a05460047
:100b00008b854e00060eb8008b0546000416b80013
:100b10000a0546008b854e000516b8008b05460079
:100b2000041eb8008b0546000800be000a01be0086
:100b30004f06be004f05be004f04be000000060079
:020000040000fa
:04003400c8020000fe
:020000040000fa
:100b4000600000006800000070000000620000000b
:100b50006a00000072000000c0020000c202000033
:100b6000c4020000c602000000000000c80200002d
:100b7000ca020000cc020000ce020000000000000b
:100b8000010000000000000008000000010000005b
:100b9000400000000200000000010000030000000f
:020000040000fa
:100ba0000400fa00000f7800110798001e00900062
:100bb000e20f5000ed003200e20f500005003e0051
:100bc0000000e00008003200e10f50000800320091
:100bd000c6013700e30f500075003200e40f5000eb
:100be00051013200c10137000000eb00c0013700a5
:100bf0001e0078006c00b9008000780000802000a2
:100c00000080400010007800100178001e0078007d
:100c10006c00b90080007800008020000080400057
:100c20001000780010007800900178001e00780015
:100c30006c00b900000078008080e800008020008f
:100c40000080400010007800030070000009780068
:100c50001e0078006c00b900800078000080200041
:100c60000080400010007800300190001e007800e5
:100c70006c00b900800078000080200000804000f7
:100c80001000780030009000900178001e0078007d
:100c90006c00b900000078008080e800008020002f
:100ca00000804000100078000080ea0000806100b1
:100cb000000978001e0078006c00b9000000780080
:100cc000e800400000802000008040001000780014
:100cd000200190001e0078006c00b9000000780030
:100ce000e8004000008020000080400010007800f4
:100cf00020009000900178001e0078006c00b90080
:100d000000007800ea0040000080200000804000e1
:100d1000100078000080ea0000806100000978007f
:100d20001e0078006c00b90000007800e800400068
:100d3000008020000080400010007800100190002a
:100d40001e0078006c00b90000007800e800400048
:100d5000008020000080400010007800100090000b
:100d6000900178001e0078006c00b9000000780047
:100d7000ea00400000802000008040001000780061
:100d80000080ea0000806100000978001e00780001
:100d90006c00b90080007800408020000080400096
:100da00011002000010878001000200050013700d9
:100db0001e0078006c00b9008000780000802000e0
:100dc0000080400010007800100178001e007800bc
:100dd0006c00b90080007800008020000080400096
:100de0001000780010007800900178001e00780054
:100df0006c00b900000078008080e80000802000ce
:100e000000804000100078000300700000097800a6
:100e10001e0078006c00b90080007800008020007f
:100e20000080400010007800300190001e00780023
:100e30006c00b90080007800008020000080400035
:100e40001000780030009000900178001e007800bb
:100e50006c00b900000078008080e800008020006d
:100e600000804000100078000080ea0000806100ef
:100e7000000978001e0078006c00b90000007800be
:100e8000e800400000802000008040001000780052
:100e9000100190001e0078006c00b900000078007e
:100ea000e800400000802000008040001000780032
:100eb00010009000900178001e0078006c00b900ce
:100ec00000007800ea004000008020000080400020
:100ed000100078000080ea000080610000097800be
:100ee0001e0078006c00b90000007800e8004000a7
:100ef0000080200000804000100078002001900059
:100f00001e0078006c00b90000007800e800400086
:100f10000080200000804000100078002000900039
:100f2000900178001e0078006c00b9000000780085
:100f3000ea0040000080200000804000100078009f
:100f400003007000000978001e0078006c00b900f2
:100f500080007800408020000080400031002000a8
:100f60000108780010002000e10037001e00780022
:100f70006c00b900800078000080200000804000f4
:100f800010007800100178001e0078006c00b90095
:100f90008000780000802000008040001000780071
:100fa00010007800900178001e0078006c00b900f5
:100fb000000078008080e800008020000080400071
:100fc0001000780003007000000978001e0078000f
:100fd0006c00b90080007800008020000080400094
:100fe00010007800300190001e0078006c00b900fd
:100ff0008000780000802000008040001000780011
:1010000030009000900178001e0078006c00b9005c
:10101000000078008080e800008020000080400010
:10102000100078000080ea0000806100000978006c
:101030001e0078006c00b90000007800e800400055
:101040000080200000804000100078002001900007
:101050001e0078006c00b90000007800e800400035
:1010600000802000008040001000780020009000e8
:10107000900178001e0078006c00b9000000780034
:10108000ea0040000080200000804000100078004e
:101090000080ea0000806100000978001e007800ee
:1010a0006c00b90000007800e800400000802000db
:1010b0000080400010007800100190001e007800b1
:1010c0006c00b90000007800e800400000802000bb
:1010d000008040001000780010009000900178001f
:1010e0001e0078006c00b90000007800ea004000a3
:1010f0000080200000804000100078000300700095
:10110000000978001e0078006c00b90080007800ab
:10111000408020000080400021002000010878006d
:1011200010002000720037001e0078006c00b9002b
:1011300080007800008020000080400010007800cf
:10114000100178001e0078006c00b9008000780063
:10115000008020000080400010007800100078001f
:10116000900178001e0078006c00b9000000780043
:101170008080e8000080200000804000100078009f
:101180000080ea0000806100000978001e007800fd
:101190006c00b900800078000080200000804000d2
:1011a00010007800300190001e0078006c00b9003b
:1011b000800078000080200000804000100078004f
:1011c00030009000900178001e0078006c00b9009b
:1011d000000078008080e80000802000008040004f
:1011e000100078000080ea000080610000097800ab
:1011f0001e0078006c00b90000007800e800400094
:101200000080200000804000100078002001900045
:101210001e0078006c00b90000007800e800400073
:101220000080200000804000100078002000900026
:10123000900178001e0078006c00b9000000780072
:10124000ea0040000080200000804000100078008c
:101250000080ea0000806100000978001e0078002c
:101260006c00b90000007800e80040000080200019
:101270000080400010007800100190001e007800ef
:101280006c00b90000007800e800400000802000f9
:10129000008040001000780010009000900178005d
:1012a0001e0078006c00b90000007800ea004000e1
:1012b0000080200000804000100078000080ea00dc
:1012c00000806100000978001e0078006c00b90001
:1012d0008000780040802000008040004100200015
:1012e00001087800100020000100370000003700de
:1012f0000080fa00000006000200fa00000f7800eb
:101300001e0078006c00b90080007800008020008a
:10131000008040001000780010009000100178005c
:101320001e0078006c00b900000078008080e800a2
:101330000080200000804000100078000000610064
:1013400000f0a7000000ea000000ea004f00de0005
:101350000080fa00000006000400fa00000f780088
:10136000110798001e0090000000e00019003200f4
:101370001e0078006c00b90080007800008020001a
:101380000080400010007800200190001e007800ce
:101390006c00b900800078000080200000804000d0
:1013a0001000780020009000900178001e00780066
:1013b0006c00b900000078008080e8000080200008
:1013c00000804000100078000300700000097800e1
:1013d000190037001e0078006c00b900800078000a
:1013e0000080200000804000100078002001900064
:1013f0001e0078006c00b90080007800008020009a
:1014000000804000100078002000900090017800db
:101410001e0078006c00b900000078008080e800b1
:101420000080200000804000100078000080ea006a
:1014300000806100000978000080fa0000000600ca
:101440000200fa00000f78001e00780010007800fb
:10145000a9ff07009e007800900098001e00780009
:1014600010089000e10f500024003200e10f5000fe
:1014700005003900e20f50002c003200e30f50004d
:1014800036003200560037001e00780090009000b1
:101490001e00780020009000808f50000500320070
:1014a000d00007001e01780040019800510198000b
:1014b0004b003700cb0007000001be001e00780083
:1014c000d00090004000900000015100818159003f
:1014d0001e007800600090008000eb00800f51003b
:1014e000818f5900310036001e0078009000900076
:1014f0001e00780001089800390037001e007800af
:10150000100090000000e0002a0032001e00780069
:10151000200090000000e00028003a001e00780043
:1015200011002000010898002d0037001e007800ef
:10153000100090000000e00022003a001e00780039
:10154000200090000000e000200032001e00780023
:101550001100200001089800210037001e007800cb
:10156000100090000000e00004003a001e00780027
:10157000200090000000e00008003a001e00780003
:10158000100090000000e000120032001e00780001
:10159000200090000000e00010003a001e007800db
:1015a00011002000010898000d0037000000000025
:1015b0000b003700000000000900370000000000a9
:1015c00007003700000000000500370000000000a1
:1015d0000300370000000000010037000000000099
:1015e0001e007800900090001e00780021009800f6
:1015f0000080fa00000006000400fa00000f7800e6
:10160000110798001e007800000890000000e0001c
:10161000050032001e0078008000eb0001089800f1
:1016200010002000010037000000eb000080fa00ed
:10163000000006000a00fa00009fbe000297be00ec
:10164000440798004e0090008000eb006011b80045
:101650003e02be002e03be00eefc07000424240060
:10166000f50020006033b800eafc070004482800b9
:10167000e50120006033b8007dfc07000000be00db
:101680000080fa00000006000800fa00889fbe00f3
:101690008a9fbe00a00480004300de00614060001d
:1016a000604798009460a90052478000634780001b
:1016b000028fbe00030880002307980020048000ea
:1016c000680060000000e000060032001200200008
:1016d000030020001e0f41005e97490003088000b0
:1016e000230798006e409000614060000080fb007e
:1016f000610060004300dd00a10480000130a10012
:1017000001007000a00488001e04be006055b800ef
:10171000204780006102b8006033b800100020004c
:10172000010020006011b8000000420081804a00e2
:1017300002014b0083814b000203be000002be0089
:101740000800be000a01be00b2fc07000203be0092
:101750000002be002e0090008000eb006011b80077
:101760000000420081804a0002014b0083814b004f
:101770004f05be004f04be000080fa0000000600c6
:101780000000fa007167a90005e1a9000421a90081
:101790000441a90004c1a90021088000f0fc2f0029
:1017a0000080600020088800ea28ef00ec28ef00a5
:1017b0000080eb00204788001000200030478800a0
:1017c0000021ef0020478000100888008460a900f5
:1017d0009460a80005e1a8000000eb000080fa007a
:1017e000000006000000fa0005000700823e20000d
:1017f0000300200075fb07000080fa0000000600cf
:101800000000fa00881f7800384780009eff07001c
:101810000802780087ff07004f0478000080fa0074
:10182000000006000a00fa00889fbe008a9fbe00e2
:1018300030079800410798003e009000ce009000cd
:10184000e00f5000e08f580002003a003000200006
:101850004a0037000040eb00004f7800430037009b
:101860001e80fb00c200dd00005c280000804000fc
:10187000100078006104b8006055b8003e00900088
:10188000ce0090006011b8000203be000002be004e
:101890000800be000a01be005efc07000203be0095
:1018a0000002be0000482800e10120006011b800dd
:1018b000effb070010079800210798001e0090001a
:1018c000ae009000e00f5000e08f5800260032007c
:1018d0001e019000ae0190000000200011002000c9
:1018e000800f5100818f59001f003e001e009000a4
:1018f0000000e900404788007187a90011e1a900b4
:101900001021a9001061a90010c1a9001e80fb00d0
:101910004200dd008080e800005c2800008040007c
:1019200010407800634060000080fb0063006000ae
:101930004400dd0082088000f1fc2f00810061007e
:10194000010070008008880040478000600888001f
:101950000621ef0084e0a90094e0a90011e1a800ad
:101960000000eb00050037001e4fe8001e40780025
:10197000e34f5000baff3600300020004f05be0094
:101980004f04be000080fa00000006000000fa00cc
:10199000404780000080fa00000006002200fa00a4
:1019a000881f780076ff07000000eb0050079800c2
:1019b000410020002000200079fc070041002000a9
:1019c000c000200076fc070041002000d00020006d
:1019d00073fc0700210020003000200070fc07008d
:1019e00021002000a00020006dfc07002100200045
:1019f000b00020006afc0700ee0047000900090063
:101a00008018eb003000200070079800803e200016
:101a1000500f98000080eb006019880071ff0700ec
:101a2000008fbe000000eb00600798000000eb0094
:101a3000200798006e00470081fe07007e08900096
:101a4000800078002000200043fe0700a000200056
:101a500029fe070000047800b000200026fe0700e1
:101a60000000400008007000600798000000eb00d4
:101a7000300798000000eb00400798006e009000cf
:101a8000e10f500007003200e10f50001d00390047
:101a9000e20f500006003200e30f50000700320052
:101aa000190037001000200030079800160037009a
:101ab00010002000400798001300370049ff07007e
:101ac0003e015000ae815800803e20000100200001
:101ad000800f5100818f59000500360041ff07003b
:101ae000008fbe002e0090000000a200200798008a
:101af000ae00900031079800ae00900041079800ba
:101b00000100370000000000be009000c00020006f
:101b100011fe0700ce009000d00020000efe07004e
:041b2000c4ff3700c7
:020000040000fa
:101b2400ea0800000400000000000000e4080000cf
:101b34000600000002000000ffff010000ffff009c
:101b440000080000e40000000200000000000000a3
:101b5400000000000000000000000000ac85200030
:101b6400000000000000000000000000ac8501003f
:101b7400000000000000a00085040000ac85020005
:101b8400000000000000a00085080000b6850100e8
:101b9400000000000000a00085100000b6850200cf
:101ba400000000000000a00085200000b6850400ad
:101bb400000000000000a00085400000ac85040087
:101bc400000000000000a60085004000ac8508006d
:101bd400000000000000a60085002000b68510006b
:101be400000000000000a00085020000ac85100089
:101bf400000000000000a00085010000b685800000
:101c0400000000000000a60085800000b6850000ea
:101c1400010000000000a60085400000b685000019
:101c2400020000000000a60085800000ac85400092
:101c3400000000000000a00085000100b68500003f
:101c4400100000000000a00085004000b6850000e0
:101c5400200000000000a00085002000b6850000e0
:101c6400400000000000a00085001000b6850000c0
:101c7400800000000000a0008500080000000000b3
:00000001FF
