:020000040000fa
:04005c00c8020000d6
:020000040000fa
:04001000c802000022
:020000040000fa
:04025c00c8020000d4
:020000040000fa
:04021000c802000020
:020000040000fa
:04027400c8020000bc
:020000040000fa
:04033400c8020000fb
:020000040000fa
:04035c00c8020000d3
:020000040000fa
:04027000c8020000c0
:020000040000fa
:04034800c8020000e7
:020000040000fa
:04022c00c802000004
:020000040000fa
:04022800c802000008
:020000040000fa
:04027800c8020000b8
:020000040000fa
:04029c00c802000094
:020000040000fa
:04026000c8020000d0
:020000040000fa
:04027c00c8020000b4
:020000040000fa
:04028000c8020000b0
:020000040000fa
:04028400c8020000ac
:020000040000fa
:04028800c8020000a8
:020000040000fa
:04028c00c8020000a4
:020000040000fa
:04029000c8020000a0
:020000040000fa
:04029400c80200009c
:020000040000fa
:04029800c802000098
:020000040000fa
:0402a800c802000088
:020000040000fa
:0402ac00c802000084
:020000040000fa
:0402b000c802000080
:020000040000fa
:0402b400c80200007c
:020000040000fa
:0402b800c802000078
:020000040000fa
:0402bc00c802000074
:020000040000fa
:0402c000c802000070
:020000040000fa
:0402c400c80200006c
:020000040000fa
:04023800c8020000f8
:020000040000fa
:0402c800c802000068
:020000040000fa
:0402cc00c802000064
:020000040000fa
:0402d000c802000060
:020000040000fa
:0402d400c80200005c
:020000040000fa
:0402d800c802000058
:020000040000fa
:0402dc00c802000054
:020000040000fa
:0402e000c802000050
:020000040000fa
:0402e400c80200004c
:020000040000fa
:0402e800c802000048
:020000040000fa
:0402ec00c802000044
:020000040000fa
:04023c00c8020000f4
:020000040000fa
:0402f000c802000040
:020000040000fa
:0402f400c80200003c
:020000040000fa
:0402f800c802000038
:020000040000fa
:0402fc00c802000034
:020000040000fa
:04030000c80200002f
:020000040000fa
:04030400c80200002b
:020000040000fa
:04030800c802000027
:020000040000fa
:04030c00c802000023
:020000040000fa
:04031000c80200001f
:020000040000fa
:04031400c80200001b
:020000040000fa
:04024000c8020000f0
:020000040000fa
:04031800c802000017
:020000040000fa
:04031c00c802000013
:020000040000fa
:04032400c80200000b
:020000040000fa
:04032800c802000007
:020000040000fa
:04033800c8020000f7
:020000040000fa
:04033c00c8020000f3
:020000040000fa
:04034000c8020000ef
:020000040000fa
:04034400c8020000eb
:020000040000fa
:04034c00c8020000e3
:020000040000fa
:04035000c8020000df
:020000040000fa
:04035400c8020000db
:020000040000fa
:04035800c8020000d7
:020000040000fa
:04026c00c8020000c4
:020000040000fa
:04021800c802000018
:020000040000fa
:04026400c8020000cc
:020000040000fa
:04023000c802000000
:020000040000fa
:04020c00c802000024
:020000040000fa
:04032000c80200000f
:020000040000fa
:04020800c802000028
:020000040000fa
:04021c00c802000014
:020000040000fa
:04022000c802000010
:020000040000fa
:04022400c80200000c
:020000040000fa
:04026800c8020000c8
:020000040000fa
:04024c00c8020000e4
:020000040000fa
:04025000c8020000e0
:020000040000fa
:04021400c80200001c
:020000040000fa
:04023400c8020000fc
:020000040000fa
:04024400c8020000ec
:020000040000fa
:04024800c8020000e8
:020000040000fa
:04032c00c802000003
:020000040000fa
:04025400c8020000dc
:020000040000fa
:04025800c8020000d8
:020000040000fa
:04033000c8020000ff
:020000040000fa
:0402a000c802000090
:020000040000fa
:0402a400c80200008c
:020000040000fa
:04007400c8020000be
:020000040000fa
:04013400c8020000fd
:020000040000fa
:04015c00c8020000d5
:020000040000fa
:04007000c8020000c2
:020000040000fa
:04014800c8020000e9
:020000040000fa
:04002c00c802000006
:020000040000fa
:04002800c80200000a
:020000040000fa
:04007800c8020000ba
:020000040000fa
:04009c00c802000096
:020000040000fa
:04006000c8020000d2
:020000040000fa
:04007c00c8020000b6
:020000040000fa
:04008000c8020000b2
:020000040000fa
:04008400c8020000ae
:020000040000fa
:04008800c8020000aa
:020000040000fa
:04008c00c8020000a6
:020000040000fa
:04009000c8020000a2
:020000040000fa
:04009400c80200009e
:020000040000fa
:04009800c80200009a
:020000040000fa
:0400a800c80200008a
:020000040000fa
:0400ac00c802000086
:020000040000fa
:0400b000c802000082
:020000040000fa
:0400b400c80200007e
:020000040000fa
:0400b800c80200007a
:020000040000fa
:0400bc00c802000076
:020000040000fa
:0400c000c802000072
:020000040000fa
:0400c400c80200006e
:020000040000fa
:04003800c8020000fa
:020000040000fa
:0400c800c80200006a
:020000040000fa
:0400cc00c802000066
:020000040000fa
:0400d000c802000062
:020000040000fa
:0400d400c80200005e
:020000040000fa
:0400d800c80200005a
:020000040000fa
:0400dc00c802000056
:020000040000fa
:0400e000c802000052
:020000040000fa
:0400e400c80200004e
:020000040000fa
:0400e800c80200004a
:020000040000fa
:0400ec00c802000046
:020000040000fa
:04003c00c8020000f6
:020000040000fa
:0400f000c802000042
:020000040000fa
:0400f400c80200003e
:020000040000fa
:0400f800c80200003a
:020000040000fa
:0400fc00c802000036
:020000040000fa
:04010000c802000031
:020000040000fa
:04010400c80200002d
:020000040000fa
:04010800c802000029
:020000040000fa
:04010c00c802000025
:020000040000fa
:04011000c802000021
:020000040000fa
:04011400c80200001d
:020000040000fa
:04004000c8020000f2
:020000040000fa
:04011800c802000019
:020000040000fa
:04011c00c802000015
:020000040000fa
:04012400c80200000d
:020000040000fa
:04012800c802000009
:020000040000fa
:04013800c8020000f9
:020000040000fa
:04013c00c8020000f5
:020000040000fa
:04014000c8020000f1
:020000040000fa
:04014400c8020000ed
:020000040000fa
:04014c00c8020000e5
:020000040000fa
:04015000c8020000e1
:020000040000fa
:04015400c8020000dd
:020000040000fa
:04015800c8020000d9
:020000040000fa
:04006c00c8020000c6
:020000040000fa
:04001800c80200001a
:020000040000fa
:04006400c8020000ce
:020000040000fa
:04003000c802000002
:020000040000fa
:04000c00c802000026
:020000040000fa
:04012000c802000011
:020000040000fa
:04000800c80200002a
:020000040000fa
:04001c00c802000016
:020000040000fa
:04002000c802000012
:020000040000fa
:04002400c80200000e
:020000040000fa
:04006800c8020000ca
:020000040000fa
:04004c00c8020000e6
:020000040000fa
:04005000c8020000e2
:020000040000fa
:04001400c80200001e
:020000040000fa
:04003400c8020000fe
:020000040000fa
:04004400c8020000ee
:020000040000fa
:04004800c8020000ea
:020000040000fa
:04012c00c802000005
:020000040000fa
:04005400c8020000de
:020000040000fa
:04005800c8020000da
:020000040000fa
:04013000c802000001
:020000040000fa
:0400a000c802000092
:020000040000fa
:0400a400c80200008e
:020000040000fa
:080000000002040000000000f2
:020000040000fa
:100400004f8e20000edf20000e018800000000004b
:10041000000020000000e000020032000001200087
:1004200020028800140007005b0007000000e000c5
:1004300003003a00e07320000100200002003700b2
:100440000000200001002000810f70000100320038
:1004500014000700000020000000e000020032004d
:100460000000020000000000de07020000000000a3
:100470000040da000000fe004440a9000002200015
:100480000000e0000300320000002000a00188000e
:100490004440a800000006008a1f78008b1f7800e7
:1004a0000000060091018800800478000000eb0045
:1004b0001a003700e284440032a0b4009905ba0063
:1004c000e284440032a0b4009906ba00e2844400f9
:1004d00032a0b4000006eb00476fde00fd07b2005b
:1004e000636ce10003003a00ebff07000000eb0043
:1004f0000a003700606ce10004003a00005deb0088
:100500008b05e900fdff3e00040037006168e10053
:10051000010032000086eb000b00070019c7ba008b
:100520001905ba000e04e00003003a000a00e000da
:10053000e0ff3a0000000600fe07b2009e018800be
:100540008a047800f5ff3700395dba008b05e900b1
:100550000c003200295dba008b05e900080032006a
:100560000c00e00003003a00e284440032a0b40032
:10057000f5ff370019ddba008b05e900faff3a00f4
:100580008904e800e184440032a0b40000000600c1
:0c0590000040da000000fe000000050042
:020000040000fa
:10059c0060000000680000007000000062000000b5
:1005ac006a00000072000000c0020000c2020000dd
:1005bc00c4020000c602000000000000c8020000d7
:1005cc00ca020000cc020000ce02000000000000b5
:020000040000fa
:1005dc000400fa00000f7800110798001e0090002c
:1005ec00e20f5000ed003200e20f500005003e001b
:1005fc000000e00008003200e10f5000080032005b
:10060c00c6013700e30f500075003200e40f5000b4
:10061c0051013200c10137000000eb00c00137006e
:10062c001e0078006c00b90080007800008020006b
:10063c000080400010007800100178001e00780047
:10064c006c00b90080007800008020000080400021
:10065c001000780010007800900178001e007800df
:10066c006c00b900000078008080e8000080200059
:10067c000080400010007800030070000009780032
:10068c001e0078006c00b90080007800008020000b
:10069c000080400010007800300190001e007800af
:1006ac006c00b900800078000080200000804000c1
:1006bc001000780030009000900178001e00780047
:1006cc006c00b900000078008080e80000802000f9
:1006dc0000804000100078000080ea00008061007b
:1006ec00000978001e0078006c00b900000078004a
:1006fc00e8004000008020000080400010007800de
:10070c00200190001e0078006c00b90000007800f9
:10071c00e8004000008020000080400010007800bd
:10072c0020009000900178001e0078006c00b90049
:10073c0000007800ea0040000080200000804000ab
:10074c00100078000080ea00008061000009780049
:10075c001e0078006c00b90000007800e800400032
:10076c0000802000008040001000780010019000f4
:10077c001e0078006c00b90000007800e800400012
:10078c0000802000008040001000780010009000d5
:10079c00900178001e0078006c00b9000000780011
:1007ac00ea0040000080200000804000100078002b
:1007bc000080ea0000806100000978001e007800cb
:1007cc006c00b90080007800408020000080400060
:1007dc0011002000010878001000200050013700a3
:1007ec001e0078006c00b9008000780000802000aa
:1007fc000080400010007800100178001e00780086
:10080c006c00b9008000780000802000008040005f
:10081c001000780010007800900178001e0078001d
:10082c006c00b900000078008080e8000080200097
:10083c000080400010007800030070000009780070
:10084c001e0078006c00b900800078000080200049
:10085c000080400010007800300190001e007800ed
:10086c006c00b900800078000080200000804000ff
:10087c001000780030009000900178001e00780085
:10088c006c00b900000078008080e8000080200037
:10089c0000804000100078000080ea0000806100b9
:1008ac00000978001e0078006c00b9000000780088
:1008bc00e80040000080200000804000100078001c
:1008cc00100190001e0078006c00b9000000780048
:1008dc00e8004000008020000080400010007800fc
:1008ec0010009000900178001e0078006c00b90098
:1008fc0000007800ea0040000080200000804000ea
:10090c00100078000080ea00008061000009780087
:10091c001e0078006c00b90000007800e800400070
:10092c000080200000804000100078002001900022
:10093c001e0078006c00b90000007800e800400050
:10094c000080200000804000100078002000900003
:10095c00900178001e0078006c00b900000078004f
:10096c00ea00400000802000008040001000780069
:10097c0003007000000978001e0078006c00b900bc
:10098c008000780040802000008040003100200072
:10099c000108780010002000e10037001e007800ec
:1009ac006c00b900800078000080200000804000be
:1009bc0010007800100178001e0078006c00b9005f
:1009cc00800078000080200000804000100078003b
:1009dc0010007800900178001e0078006c00b900bf
:1009ec00000078008080e80000802000008040003b
:1009fc001000780003007000000978001e007800d9
:100a0c006c00b9008000780000802000008040005d
:100a1c0010007800300190001e0078006c00b900c6
:100a2c0080007800008020000080400010007800da
:100a3c0030009000900178001e0078006c00b90026
:100a4c00000078008080e8000080200000804000da
:100a5c00100078000080ea00008061000009780036
:100a6c001e0078006c00b90000007800e80040001f
:100a7c0000802000008040001000780020019000d1
:100a8c001e0078006c00b90000007800e8004000ff
:100a9c0000802000008040001000780020009000b2
:100aac00900178001e0078006c00b90000007800fe
:100abc00ea00400000802000008040001000780018
:100acc000080ea0000806100000978001e007800b8
:100adc006c00b90000007800e800400000802000a5
:100aec000080400010007800100190001e0078007b
:100afc006c00b90000007800e80040000080200085
:100b0c0000804000100078001000900090017800e8
:100b1c001e0078006c00b90000007800ea0040006c
:100b2c00008020000080400010007800030070005e
:100b3c00000978001e0078006c00b9008000780075
:100b4c004080200000804000210020000108780037
:100b5c0010002000720037001e0078006c00b900f5
:100b6c008000780000802000008040001000780099
:100b7c00100178001e0078006c00b900800078002d
:100b8c0000802000008040001000780010007800e9
:100b9c00900178001e0078006c00b900000078000d
:100bac008080e80000802000008040001000780069
:100bbc000080ea0000806100000978001e007800c7
:100bcc006c00b9008000780000802000008040009c
:100bdc0010007800300190001e0078006c00b90005
:100bec008000780000802000008040001000780019
:100bfc0030009000900178001e0078006c00b90065
:100c0c00000078008080e800008020000080400018
:100c1c00100078000080ea00008061000009780074
:100c2c001e0078006c00b90000007800e80040005d
:100c3c00008020000080400010007800200190000f
:100c4c001e0078006c00b90000007800e80040003d
:100c5c0000802000008040001000780020009000f0
:100c6c00900178001e0078006c00b900000078003c
:100c7c00ea00400000802000008040001000780056
:100c8c000080ea0000806100000978001e007800f6
:100c9c006c00b90000007800e800400000802000e3
:100cac000080400010007800100190001e007800b9
:100cbc006c00b90000007800e800400000802000c3
:100ccc000080400010007800100090009001780027
:100cdc001e0078006c00b90000007800ea004000ab
:100cec000080200000804000100078000080ea00a6
:100cfc0000806100000978001e0078006c00b900cb
:100d0c0080007800408020000080400041002000de
:100d1c0001087800100020000100370000003700a7
:100d2c000080fa00000006000200fa00000f7800b4
:100d3c001e0078006c00b900800078000080200054
:100d4c000080400010007800100090001001780026
:100d5c001e0078006c00b900000078008080e8006c
:100d6c00008020000080400010007800000061002e
:100d7c0000f0a7000000ea000000ea004f00de00cf
:100d8c000080fa00000006000400fa00000f780052
:100d9c00110798001e0090000000e00019003200be
:100dac001e0078006c00b9008000780000802000e4
:100dbc000080400010007800200190001e00780098
:100dcc006c00b9008000780000802000008040009a
:100ddc001000780020009000900178001e00780030
:100dec006c00b900000078008080e80000802000d2
:100dfc0000804000100078000300700000097800ab
:100e0c00190037001e0078006c00b90080007800d3
:100e1c00008020000080400010007800200190002d
:100e2c001e0078006c00b900800078000080200063
:100e3c0000804000100078002000900090017800a5
:100e4c001e0078006c00b900000078008080e8007b
:100e5c000080200000804000100078000080ea0034
:100e6c0000806100000978000080fa000000060094
:020000040000fa
:100e7c0000080000e4000000020000000000000078
:100e8c00000000000000000000000000da822000da
:100e9c00000000000000000000000000da820100e9
:100eac00000000000000ce0082040000da82020084
:100ebc00000000000000ce0082080000e482010067
:100ecc00000000000000ce0082100000e48202004e
:100edc00000000000000ce0082200000e48204002c
:100eec00000000000000ce0082400000da82040006
:100efc00000000000000d40082004000da820800ec
:100f0c00000000000000d40082002000e4821000e9
:100f1c00000000000000ce0082020000da82100007
:100f2c00000000000000ce0082010000e48280007e
:100f3c00000000000000d40082800000e482000069
:100f4c00010000000000d40082400000e482000098
:100f5c00020000000000d40082800000da82400011
:100f6c00000000000000ce0082000100e4820000be
:100f7c00100000000000ce0082004000e48200005f
:100f8c00200000000000ce0082002000e48200005f
:100f9c00400000000000ce0082001000e48200003f
:100fac00800000000000ce0082000800000000005d
:020000040000fa
:100fbc000200fa00410020002000200084fd070000
:100fcc0010002000000f78002100200030002000cd
:100fdc007ffd07000080eb006019880030002000c6
:100fec0051ff0700800078002000200066ff0700fa
:040ffc00faff3700c1
:00000001FF
