:020000040000fa
:04005c00600300003d
:020000040000fa
:040010006003000089
:020000040000fa
:04025c00600300003b
:020000040000fa
:040210006003000087
:020000040000fa
:040274006003000023
:020000040000fa
:040334006003000062
:020000040000fa
:04035c00600300003a
:020000040000fa
:040270006003000027
:020000040000fa
:04034800600300004e
:020000040000fa
:04022c00600300006b
:020000040000fa
:04022800600300006f
:020000040000fa
:04027800600300001f
:020000040000fa
:04029c0060030000fb
:020000040000fa
:040260006003000037
:020000040000fa
:04027c00600300001b
:020000040000fa
:040280006003000017
:020000040000fa
:040284006003000013
:020000040000fa
:04028800600300000f
:020000040000fa
:04028c00600300000b
:020000040000fa
:040290006003000007
:020000040000fa
:040294006003000003
:020000040000fa
:0402980060030000ff
:020000040000fa
:0402a80060030000ef
:020000040000fa
:0402ac0060030000eb
:020000040000fa
:0402b00060030000e7
:020000040000fa
:0402b40060030000e3
:020000040000fa
:0402b80060030000df
:020000040000fa
:0402bc0060030000db
:020000040000fa
:0402c00060030000d7
:020000040000fa
:0402c40060030000d3
:020000040000fa
:04023800600300005f
:020000040000fa
:0402c80060030000cf
:020000040000fa
:0402cc0060030000cb
:020000040000fa
:0402d00060030000c7
:020000040000fa
:0402d40060030000c3
:020000040000fa
:0402d80060030000bf
:020000040000fa
:0402dc0060030000bb
:020000040000fa
:0402e00060030000b7
:020000040000fa
:0402e40060030000b3
:020000040000fa
:0402e80060030000af
:020000040000fa
:0402ec0060030000ab
:020000040000fa
:04023c00600300005b
:020000040000fa
:0402f00060030000a7
:020000040000fa
:0402f40060030000a3
:020000040000fa
:0402f800600300009f
:020000040000fa
:0402fc00600300009b
:020000040000fa
:040300006003000096
:020000040000fa
:040304006003000092
:020000040000fa
:04030800600300008e
:020000040000fa
:04030c00600300008a
:020000040000fa
:040310006003000086
:020000040000fa
:040314006003000082
:020000040000fa
:040240006003000057
:020000040000fa
:04031800600300007e
:020000040000fa
:04031c00600300007a
:020000040000fa
:040324006003000072
:020000040000fa
:04032800600300006e
:020000040000fa
:04033800600300005e
:020000040000fa
:04033c00600300005a
:020000040000fa
:040340006003000056
:020000040000fa
:040344006003000052
:020000040000fa
:04034c00600300004a
:020000040000fa
:040350006003000046
:020000040000fa
:040354006003000042
:020000040000fa
:04035800600300003e
:020000040000fa
:04026c00600300002b
:020000040000fa
:04021800600300007f
:020000040000fa
:040264006003000033
:020000040000fa
:040230006003000067
:020000040000fa
:04020c00600300008b
:020000040000fa
:040320006003000076
:020000040000fa
:04020800600300008f
:020000040000fa
:04021c00600300007b
:020000040000fa
:040220006003000077
:020000040000fa
:040224006003000073
:020000040000fa
:04026800600300002f
:020000040000fa
:04024c00600300004b
:020000040000fa
:040250006003000047
:020000040000fa
:040214006003000083
:020000040000fa
:04023400480300007b
:020000040000fa
:040244006003000053
:020000040000fa
:040248000c1a00008c
:020000040000fa
:04032c00600300006a
:020000040000fa
:04025400d0020000d4
:020000040000fa
:04025800ee020000b2
:020000040000fa
:040330006003000066
:020000040000fa
:0402a0000c0300004b
:020000040000fa
:0402a4002a03000029
:020000040000fa
:040074006003000025
:020000040000fa
:040134006003000064
:020000040000fa
:04015c00600300003c
:020000040000fa
:040070006003000029
:020000040000fa
:040148006003000050
:020000040000fa
:04002c00600300006d
:020000040000fa
:040028006003000071
:020000040000fa
:040078006003000021
:020000040000fa
:04009c0060030000fd
:020000040000fa
:040060006003000039
:020000040000fa
:04007c00600300001d
:020000040000fa
:040080006003000019
:020000040000fa
:040084006003000015
:020000040000fa
:040088006003000011
:020000040000fa
:04008c00600300000d
:020000040000fa
:040090006003000009
:020000040000fa
:040094006003000005
:020000040000fa
:040098006003000001
:020000040000fa
:0400a80060030000f1
:020000040000fa
:0400ac0060030000ed
:020000040000fa
:0400b00060030000e9
:020000040000fa
:0400b40060030000e5
:020000040000fa
:0400b80060030000e1
:020000040000fa
:0400bc0060030000dd
:020000040000fa
:0400c00060030000d9
:020000040000fa
:0400c40060030000d5
:020000040000fa
:040038006003000061
:020000040000fa
:0400c80060030000d1
:020000040000fa
:0400cc0060030000cd
:020000040000fa
:0400d00060030000c9
:020000040000fa
:0400d40060030000c5
:020000040000fa
:0400d80060030000c1
:020000040000fa
:0400dc0060030000bd
:020000040000fa
:0400e00060030000b9
:020000040000fa
:0400e40060030000b5
:020000040000fa
:0400e80060030000b1
:020000040000fa
:0400ec0060030000ad
:020000040000fa
:04003c00600300005d
:020000040000fa
:0400f00060030000a9
:020000040000fa
:0400f40060030000a5
:020000040000fa
:0400f80060030000a1
:020000040000fa
:0400fc00600300009d
:020000040000fa
:040100006003000098
:020000040000fa
:040104006003000094
:020000040000fa
:040108006003000090
:020000040000fa
:04010c00600300008c
:020000040000fa
:040110006003000088
:020000040000fa
:040114006003000084
:020000040000fa
:040040006003000059
:020000040000fa
:040118006003000080
:020000040000fa
:04011c00600300007c
:020000040000fa
:040124006003000074
:020000040000fa
:040128006003000070
:020000040000fa
:040138006003000060
:020000040000fa
:04013c00600300005c
:020000040000fa
:040140006003000058
:020000040000fa
:040144006003000054
:020000040000fa
:04014c00600300004c
:020000040000fa
:040150006003000048
:020000040000fa
:040154006003000044
:020000040000fa
:040158006003000040
:020000040000fa
:04006c00600300002d
:020000040000fa
:040018006003000081
:020000040000fa
:040064006003000035
:020000040000fa
:040030006003000069
:020000040000fa
:04000c00600300008d
:020000040000fa
:040120006003000078
:020000040000fa
:040008006003000091
:020000040000fa
:04001c00600300007d
:020000040000fa
:040020006003000079
:020000040000fa
:040024006003000075
:020000040000fa
:040068006003000031
:020000040000fa
:04004c00600300004d
:020000040000fa
:040050006003000049
:020000040000fa
:040014006003000085
:020000040000fa
:040044006003000055
:020000040000fa
:04012c00600300006c
:020000040000fa
:040130006003000068
:020000040000fa
:080000000002040000000000f2
:020000040000fa
:10040000efb920000edf20000e0188000000000080
:10041000000020000000e000020032000001200087
:100420002002880014000700a70007000000e00079
:1004300003003a0040a5210001002000020037001f
:100440000000200001002000810f70000100320038
:1004500014000700000020000000e000020032004d
:100460000000020000000000d61902000000000099
:100470000040da000000fe004440a900401b2000bc
:100480000000e0000300320000002000a00188000e
:100490004440a800000006008a1f78008b1f7800e7
:1004a0000000060091018800800478000000eb0045
:1004b0001a003700e284440032a0b4009905ba0063
:1004c000e284440032a0b4009906ba00e2844400f9
:1004d00032a0b4000006eb00476fde00fd07b2005b
:1004e000636ce10003003a00ebff07000000eb0043
:1004f0000a003700606ce10004003a00005deb0088
:100500008b05e900fdff3e00040037006168e10053
:10051000010032000086eb000b00070019c7ba008b
:100520001905ba000e04e00003003a000a00e000da
:10053000e0ff3a0000000600fe07b2009e018800be
:100540008a047800f5ff3700395dba008b05e900b1
:100550000c003200295dba008b05e900080032006a
:100560000c00e00003003a00e284440032a0b40032
:10057000f5ff370019ddba008b05e900faff3a00f4
:100580008904e800e184440032a0b40000000600c1
:10059000000000000000000000000000000000005b
:1005a0003600f800809fbe00829fbe00849fbe0080
:1005b000869fbe000000fa000000eb00aa040700be
:1005c0000080fa004f03be004f02be004f01be0084
:1005d0004f00be003600f900004006003600f8006b
:1005e000809fbe00829fbe00849fbe00869fbe008b
:1005f0000000fa000000eb00170507000080fa0079
:100600004f03be004f02be004f01be004f00be00b0
:100610003600f900004006003600f800809fbe005a
:10062000829fbe00849fbe00869fbe000000fa002d
:10063000100020008c0407000080fa004f03be0069
:100640004f02be004f01be004f00be003600f90051
:10065000004006003600f800809fbe00829fbe006a
:10066000849fbe00869fbe000000fa00100020009c
:10067000f90407000080fa004f03be004f02be00dd
:100680004f01be004f00be003600f90000400600da
:10069000809fbe000000fa00c05c8000d15c80003a
:1006a00061004000e0804800c05c8800d15c8800a8
:1006b0008460a9000080fa004f00be0000400600e0
:1006c0000040da000000fe00000005006022b800d3
:1006d000060220000000d0008180d2000482d200f7
:1006e0008582d2000000a0000202520083825a00dc
:1006f000030031000202420083824a000000a10090
:100700000603e900f3ff3a0000000600889fbe00e0
:100710008a9fbe0030044200b0844a0030054b007e
:1007200090854b006000b1000898be000a90be00a2
:100730000440e10005c8e10006d0e10007d8e1006f
:1007400002003100680040001008e8004f05be00bc
:100750004f04be0000000600889fbe008a9fbe00b6
:100760003004be002005be000418540005985c004b
:1007700006185d0007985d00110020000440e100ac
:1007800005c8e10006d0e10007d8e100010039000a
:100790008000eb00108810004f05be004f04be0023
:1007a000000006001200fa00889fbe008a9fbe006b
:1007b0008c9fbe00e0b79f00f1b79f0082bf9f00f3
:1007c00093bf9f000605be000404be000000eb00be
:1007d000d0b79f00c0b79f00b0b79f00a0b79f00e1
:1007e00090b79f00000678005fb19700cfb09700e8
:1007f000820141003fb097000200e00004003d008c
:10080000370007007e805700c0ff07000300370055
:10081000330007007e805700cfff0700dfb6970048
:100820000d00e0000c0035006fb29700ffb297009a
:100830000fbb97009fbb9700100020000100200015
:100840006011b8000002720081827200020373001e
:10085000838373001b0007000c06e80001042000de
:10086000810f5600e0ff3a000d00e00004003d005b
:100870000802be000a03be007e805700a3ff0700e7
:100880005fa897000000e00005003a001fb2970043
:10089000afb297003fb39700cfb3970009000700ae
:1008a0006fb09700ffb097000fb997009fb99700fe
:1008b0004f06be004f05be004f04be000080fa0088
:1008c000000006000100070000000600a4b79f001a
:1008d000b5b79f00c6b79f00d7b79f0000000600be
:1008e0004f09de0082817100b3b79f004f01de0027
:1008f0008180400082807000a1b79f008fb0970078
:100900004f09de00000040000200700090b79f0019
:100910007fa897004f01de00818040008280700038
:1009200081b79f000d0007004f3ade000000400035
:1009300004007000f0af9f000800070004024200ae
:1009400085824a0006034b0087834b00dfff0700c8
:100950000802be000a03be00000006002fb2970086
:10096000bfb297004fb39700dfb3970000000600b7
:10097000881f780018002000881f780089ff070072
:100980008f87e9004f04780000000600801feb000d
:1009900084ff07008f87e90000000600889fbe00e3
:1009a0008a9fbe00e00f5000e08f5800e00f590012
:1009b000e08f59000c003d006044b8006055b8005d
:1009c0000000540081805c0002015d0083815d00b5
:1009d000180020001500070008003d00180007005f
:1009e0000004eb00050037000004eb000f000700d7
:1009f00002003d001200070018002000dcff070085
:100a00000800e000060032006022b8006033b80041
:100a10000000520081805a0002015b0083815b006c
:100a20004f05be004f04be0000000600e00f52005c
:100a3000e08f5a00e00f5b00e08f5b0000000600d3
:100a40006044b8006055b8000402540085825c0020
:100a500006035d0087835d0000000600889fbe00de
:100a60008a9fbe008c1f7800e00f5000e08f580076
:100a7000e00f5900e08f59000d003d006044b800c0
:100a80006055b8000000540081805c0002015d00e8
:100a900083815d001c0020000820e10009a8e1001e
:100aa0000ab0e1000bb8e1000d003d00080037007e
:100ab0000006eb00e00f5200e08f5a00e00f5b00f1
:100ac000e08f5b0006003d006044b8006055b80050
:100ad0000402540085825c0006035d0087835d008c
:100ae000aaff07000c00e000060032006022b800f8
:100af0006033b8000000520081805a0002015b00a0
:100b000083815b004f0678004f05be004f04be0096
:100b100000000600889fbe008a9fbe008c1f7800e0
:100b20000006eb00e00f5000e08f5800e00f590086
:100b3000e08f590007003d006044b8006055b800e0
:100b40000000540081805c0002015d0083815d0033
:100b50001c002000e00f5200e08f5a00e00f5b0005
:100b6000e08f5b0007003d006044b8006055b800ae
:100b70000402540085825c0006035d0087835d00eb
:100b80000c00a2000c0007000c00e0000600320080
:100b90006022b8006033b8000000520081805a0023
:100ba00002015b0083815b004f0678004f05be00a9
:100bb0004f04be0000000600889fbe008a9fbe0052
:100bc0008c9fbe000404b8000506b80089044600e6
:100bd00060854e000606b8000a054600e0854e0016
:100be0000706b8008b054600040eb80089044600cd
:100bf0000a854e00e0854d00050eb8000a05460046
:100c00008b854e00060eb8008b0546000416b80012
:100c10000a0546008b854e000516b8008b05460078
:100c2000041eb8008b0546000800be000a01be0085
:100c30004f06be004f05be004f04be000000060078
:020000040000fa
:04005400d0020000d6
:020000040000fa
:04005800ee020000b4
:020000040000fa
:0400a0000c0300004d
:020000040000fa
:0400a4002a0300002b
:020000040000fa
:04003400480300007d
:020000040000fa
:040048000c1a00008e
:020000040000fa
:100c400000000000000000000000000000000000a4
:100c50000000000000000000000000000000000094
:100c60000000000000000000c0020000c2020000fe
:100c7000c402000000000000c602000000000000e6
:100c8000200000000000000000000000ffff000046
:100c9000c0020000c2020000c40200002c030000d9
:100ca000c602000068000000010000000100000012
:100cb0000400000000ff0000c0020000c2020000ab
:100cc000c40200002c030000c602000068000000ff
:100cd00002000000020000000800000001ff000008
:100ce000c8020000ca020000cc0200002c03000071
:100cf000ce020000680000000100000004000000b7
:100d00001000000002ff0000c8020000ca0200003c
:100d1000cc0200002c030000ce020000680000009e
:100d200002000000080000002000000003ff000097
:100d3000c8020000ca020000cc020000000000004f
:100d4000ce02000068000000040000000000000067
:100d500040000000ffff0000c0020000c2020000cf
:100d6000c40200002c030000c60200006a0000005c
:100d700004000000100000000040000004ff00001c
:100d8000c0020000c2020000c40200002c030000e8
:100d9000c60200006a0000000800000020000000f9
:100da0000020000005ff0000c8020000ca02000089
:100db000cc02000000000000ce020000680000002d
:100dc000100000000000000002000000ffff000013
:100dd000c0020000c2020000c402000000000000c7
:100de000c6020000680000001000000000000000c3
:100df00001000000ffff0000c8020000ca0200005e
:100e0000cc02000000000000ce0200006a000000da
:100e1000800000000000000080000000ffff0000d4
:100e2000c8020000ca020000cc020000000000005e
:100e3000ce0200006a000000000100000000000077
:100e400040000000ffff0000c8020000ca020000ce
:100e5000cc02000000000000ce0200006a0000008a
:100e6000000200000000000020000000ffff000062
:100e7000c0020000c2020000c40200000000000026
:100e8000c6020000680000004000000000000000f2
:100e900000010000ff010000c8020000ca020000bb
:100ea000cc0200002c030000ce020000680000000d
:100eb0000010000000100000004000000cff0000c7
:100ec000c8020000ca020000cc0200002c0300008f
:100ed000ce020000680000000020000000080000b2
:100ee000002000000bff0000c8020000ca02000042
:100ef000cc0200002c030000ce02000068000000bd
:100f00000040000000040000001000000aff000084
:100f1000c8020000ca020000cc020000000000006d
:100f2000ce02000068000000008000000000000009
:100f300000080000ffff00000000000000000000ab
:100f400000000000000000000000000000000000a1
:100f5000000000000000000000000000ffff000093
:100f60000000000000000000000000000000000081
:100f70000000000000000000000000000000000071
:100f800000000000ffff0000010000000000000062
:100f90000800000001000000400000000200000006
:080fa000000100000300000045
:020000040000fa
:100fa8000400fa00000f7800110798001e0fe800ef
:100fb8001e0090009e007800808f500002003900cb
:100fc8000000eb00000f78001e0078000080fa0097
:100fd800000006000a00fa00200798003107980070
:100fe800420798002e009000100f78003e009000f5
:100ff80090007800110798001e0090009e0078006d
:10100800808f5000030039001e0090001e00100061
:1010180004003700ce0090001e00900000805000b1
:101028001e0040000080fa00000006000200fa00de
:10103800000f780010c0b3009e007800e18f5000c8
:10104800010036000040eb000080fa0000000600b6
:101058000600fa00000f7800110798002207980090
:101068001e0078000000e00003003200e10f50008d
:101078000c003200160037001e009000eb0f5000e5
:1010880005003a002e009000e60f500002003a00da
:1010980010002000010037000000eb00004078003d
:1010a8000c0037001e009000e40f500005003a00c5
:1010b8002e009000e50f500002003a0010002000ba
:1010c800010037000000eb00004078000100370005
:1010d8000040eb000080fa00000006000200fa0061
:1010e800000f78001e0078000000e00003003200c6
:1010f800e10f50000400320008003700c8e2a900e0
:10110800c842a800050037002c43a8002c63a8009b
:10111800c802a900c822a800000000000080fa0048
:10112800000006002a00fa00889fbe008a9fbe00c1
:101138000017980011179800426798003317980015
:10114800441798004e6090000004e000040032004c
:1011580040002000010020006011b80003003700a3
:1011680000012000010020006011b800400798002d
:101178005107980062079800730798000e109000b6
:101188009e1090006011b8004e029000de029000a0
:101198006e039000fe0390005cfe07008303d100fd
:1011a8000283d3008182d3000082d3000048280044
:1011b800e10120006011b8000004420081844a0067
:1011c80002054b0083854b000e1090009e10900086
:1011d8006011b8004e029000de0290006e0390008d
:1011e800fe03900049fe07000203be000002be0095
:1011f8000800be000a01be00dbfd0700000f9800d2
:10120800110f9800220f9800330f98000e089000d5
:101218009e0890002e099000be099000e00f500033
:10122800e08f5800e00f5900e08f59000c003200a1
:101238000e0a90009e0a90002e0b9000be0b9000a4
:1012480000002000110020006011b8000020e1001b
:1012580001a8e10002b0e10003b8e1000200360095
:101268000040eb00550037000e0a90009e0a9000df
:101278002e0b9000be0b90004e009000de009000f8
:101288006e019000fe01900020fe07000203be00e0
:101298000002be0000482800e10120006011b800eb
:1012a800b1fd0700400f9800510f9800620f980099
:1012b800730f98000e1090009e1090000002be0060
:1012c8006033b8004e089000de0890006e09900068
:1012d800fe0990000020e10001a8e10002b0e10051
:1012e80003b8e1000d003e000e1090009e10900023
:1012f8006011b8004e0a9000de0a90006e0b900054
:10130800fe0b9000001f5200019f5a00021f5b0055
:10131800038f5b006e00b1000d0037000e109000c7
:101328009e1090000002be006033b8004e08900086
:10133800de0890006e099000fe099000001f520020
:10134800019f5a00021f5b00038f5b006e00b10013
:101358000e0890008000e9003e1090000108780017
:101368003e109000ce609000214098000424240094
:10137800f50020006033b8003e00be002e01be001c
:10138800e2fd07000205be000004be000e1090003a
:101398009e1090006011b8000203be000002be005b
:1013a8000800be000a01be006ffd07004e12900043
:1013b800009abe000292be0010c0b3004f05be00e6
:1013c8004f04be000080fa00000006002000fa006a
:1013d800889fbe008a9fbe00500f9800610f98003a
:1013e800720f98006000b8006011b80050079800ac
:1013f8006107980072079800030f98006000b80012
:101408006011b800100f9800210f9800320f980053
:10141800430f98005e089000ee089000e00f50001f
:10142800e08f5800030032007e0890000000e000c2
:1014380002003a000040eb0055003700ea00470080
:101448000e80e80001027800800178000041eb007e
:101458005e089000ee08900032ff0700004f780009
:10146800f20047006600470001027800800178001a
:1014780012c0b3005e089000ee08900029ff070034
:10148800104798001e4078000004a2000004e00005
:10149800060032001e4090000004a2000004e00094
:1014a800020032000040eb00390037001e4078008f
:1014b8000004a2000004e00010003a001e40900062
:1014c8000004e000200032001e0a9000ae0a9000de
:1014d8003e0b9000ce0b90005e009000ee00900056
:1014e8007e0190008e0990000020e10001a8e10033
:1014f80002b0e10003b8e100130031007e0890005b
:101508003e019000ce0190000288be001e0c9000a3
:10151800ae0c90003e0d9000ce0d900010c0b300b0
:1015280004352c00050020006033b8000440e100b9
:1015380005c8e10006d0e10007d8e1001400360034
:101548000040eb00120037007e0890001e0190005a
:10155800ae0190000288be005e049000ee04900088
:101568007e0590008e0d900010c0b30004352c004d
:10157800050020006033b8000440e10005c8e10020
:1015880006d0e10007d8e100010036000040eb007a
:101598004f05be004f04be000080fa0000000600a0
:1015a8000200fa00000f78001e0078008000eb00af
:1015b800012098001e0078008000eb0011209800a0
:1015c8001e0078008000eb00218098001e00780043
:1015d8008000eb00318098001e0078008040eb000e
:1015e800414899000080fa00000006000200fa0055
:1015f800000f78001e0078000000e00003003200b1
:10160800e10f5000080032000e0037009560a90075
:101618009580a90021e2a9002342a9008560a900bc
:101628008580a9000700370097c0a90097e0a900a6
:1016380031e2a9003342a90087c0a90087e0a900c8
:10164800000000000080fa00000006000200fa0016
:10165800000f78001e0078000000e0000300320050
:10166800e10f500004003200060037008580a80012
:101678009580a8000300370087e0a80097e0a8003d
:10168800000000000080fa00000006000200fa00d6
:10169800000f78001e0078000000e0000300320010
:1016a800e10f500004003200060037009580a900c1
:1016b8008580a9000300370097e0a90087e0a9000a
:1016c800000000000080fa00000006000400fa0094
:1016d800000f7800110798001e0078000000e00055
:1016e80003003200e10f50002e0032005a0037008c
:1016f80070a7a9002022ef002222ef001e00900010
:1017080020409000614060000080fb0061006000a4
:101718004300dd00011180000130a10001007000cc
:10172800001188000111800090ff2f0000806000e8
:10173800001188002002a9001e0090001000780007
:10174800401188002222a90011118000f0f32f0017
:10175800008060001011880023a2a90023e2a900dc
:1017680041058000f0ff28000080600000e0a00034
:10177800400588005105800080ff2f000080600030
:101788000020a000500588008560a9008580a90078
:101798009580a90021e2a8002342a8009560a8002e
:1017a8002d00370070c7a9003022ef003222ef0069
:1017b8001e00900020409000614060000080fb0007
:1017c800610060004300dd00811180000130a1004c
:1017d80001007000801188008111800090ff2f00a7
:1017e80000806000801188003002a9001e0090006f
:1017f80010007800c01188003222a90091118000e1
:10180800f0f32f00008060009011880033a2a90037
:1018180033e2a90091058000f08f2f00008060005e
:1018280000a0a0009005880091058000f0ff280026
:101838000080600000e0a0009005880087c0a90033
:1018480087e0a90097e0a90031e2a8003342a80088
:1018580097c0a800000000000080fa000000060001
:101868000c00fa0050079800de009000e008200005
:101878000088b90080007800c0a02000008f4000d8
:101888005e0090000000e00038003a00101180006f
:10189800620060000000e0002b0032002222a90054
:1018a8002c00370010118000640060000000e00088
:1018b80004003a0010118000680060000000e00099
:1018c8000200320010002000010037000000eb0089
:1018d8002047980030118000304798001e0078009b
:1018e8002080900001042000adfd0700200798002b
:1018f8002e4090000004e00015003a001e00780019
:10190800b08090002e009000808f500004003a00b4
:101918001e00780011c0b300414899000d0037003f
:101928001e007800208090009e0078000080400013
:10193800be40900041c098001e007800ae009000a4
:1019480021809800030037000000000001003700e4
:101958000000000010118000610060000000e0003d
:10196800d0ff3a008560a900370037009011800049
:10197800620060000000e0002b0032003222a90063
:101988002c00370090118000640060000000e00027
:1019980004003a0090118000680060000000e00038
:1019a8000200320010002000010037000000eb00a8
:1019b80060479800b0118000704798001e007800ba
:1019c800208090000104200075fd07004007980062
:1019d8006e4090000004e00015003a001e007800f8
:1019e800b08090004e009000808f500004003a00b4
:1019f8001e00780011c0b300414899000d0037005f
:101a08001e007800208090009e0078000080400032
:101a1800fe40900041c098001e007800ce00900063
:101a28002180980003003700000000000100370003
:101a38000000000090118000610060000000e000dc
:101a4800d0ff3a0087c0a9000080fa000000060015
:101a58000400fa00100798009e009000e00820009b
:101a68000088b90080007800c0a02000008f4000e6
:101a78001e0090000000e00030003a000c00370023
:101a88001e007800102090009e00780061407800c9
:101a98000080fb00201188001e00780010209000b4
:101aa800010420003efd07009e0078009020980069
:101ab8001e007800902090001e0078000020900002
:101ac800808f500005003200111180000020200096
:101ad800008060000000e000e9ff32001e0078008e
:101ae800902090001e00780000209000808f500009
:101af80003003a000000eb00e4fe07002500370071
:101b08008580a900230037001e007800102090006f
:101b18009e007800614078000080fb00a0118800da
:101b28001e00780010209000010420001cfd070012
:101b38009e00780090209800010037000000000007
:101b48001e007800902090001e0078000020900071
:101b5800808f500005003200911180000020200085
:101b6800008060000000e000e7ff32001e007800ff
:101b7800902090001e00780000209000808f500078
:101b880003003a0010002000c0fe070001003700e3
:101b980087e0a9000080fa00000006000e00fa00a5
:101ba800300798004107980052079800630798008b
:101bb8003e0090001dfd07000004a2000004e000a4
:101bc80011003a006e0090000000e0000e003200a4
:101bd8005e019000ce0090003e0090001cfd0700c2
:101be8000004a2000004e00007003a006e00900024
:101bf8001000be000e81e800f4fd07000004a200fa
:101c08000004e000020032003000200045003700e8
:101c18003e00900075fe0700410020004e00900035
:101c2800d9020700000f78001e0078000000e000cd
:101c3800020032001e0078003a0037004100200000
:101c48005e009000d0020700000f78001e007800a8
:101c58000000e00005003200410020004e00900026
:101c6800e10207001e0078002e003700be00900039
:101c7800e00820000088b90080007800c0a020009b
:101c88000080400046fe0700be009000e0082000eb
:101c98000088b9008000780040a92000008040003a
:101ca800ce00900001087800be009000e0082000f7
:101cb8000088b9008000780060a9200000804000fa
:101cc800de00900001087800be009000e0082000c7
:101cd8000088b9008000780080a9200000804000ba
:101ce8008040eb00114098003e009000fbfc07008c
:101cf8000e80e800800078003e00900073fe070028
:101d0800be009000e00820000088b900800078003c
:101d180080a920000080400011c0b3001140980045
:101d28000000eb000080fa00000006000400fa0042
:101d3800100798001e009000bcfc07000004a200d9
:101d48000004e00020003a009e009000e008200017
:101d58000088b90080007800c0a02000008f4000f3
:101d68001e00900021fe07001e00780050489100d8
:101d78000004e000080032001e0078004080900057
:101d880041002000980207001e0078005080900053
:101d980041002000940207001e00780000fe0700a2
:101da8001e0078008000eb00418098001e0078003b
:101db8008000eb00518098001e0078008040eb0006
:101dc8005148990001003700000000000080fa0027
:101dd800000006000800fa002007980061479800f4
:101de8002e00900091fc07000004a2000004e0000f
:101df8000c003a00ae009000e00820000088b9000e
:101e080000007800c108200080804000c0a02000a9
:101e180000804000104090000004a2000004e00090
:101e2800020032000040eb001d003700ae009000b9
:101e3800e00820000088b90080007800c0a02000d9
:101e4800008f40001e007800002090000104200050
:101e580053fc0700100798001e007800902090009f
:101e68001e009000808f500002003a000040eb00f6
:101e78000b0037001e007800002090009e007800bc
:101e88006e419000827078001e0078009e009000dd
:101e9800012098002e009000ecfd070010c0b30050
:101ea8000080fa00000006000800fa0010079800f9
:101eb80021079800320798000000eb00000f780017
:101ec8002e0090000000e00003003a000000eb0044
:101ed8000e0037001e0fe8003e0090009e007800bc
:101ee800808f5000080031002e0090001e00400036
:101ef80010407800804078001e009000b5ff070071
:101f08000004e000f3ff3a001e0078000080fa00a9
:101f1800000006000600fa00100798002107980044
:101f28000000eb00000f78002e0090000000e00099
:101f380004003a000000eb00110037001e0fe80013
:101f480001003700000000002e0090001e00400035
:101f5800104078000004e000080032002e009000d5
:101f68001e00400010407800804078001e0090005d
:101f780098ff07000004e000f0ff3a001e00780018
:101f88000080fa00000006000200fa00000f780046
:101f98001e00780025fc07000004a2000004e000f1
:101fa8000c003a009e007800e00820000088b90084
:101fb80000007800c108200080804000c0a02000f8
:101fc80000804000104090000004a2000004e000df
:101fd800020032000000eb00150037009e00780078
:101fe800e00820000088b9000000780021042000e3
:101ff80080804000c0a02000808140009e007800c2
:10200800e00820000088b9000000780001042000e2
:1020180080804000c0a02000008040000204200012
:1020280083007800ebfb0700f103200000805000dc
:102038000080fa00000006000200fa00000f780095
:102048001e007800f9fb07000004a2000004e0006d
:102058000c003a009e007800e00820000088b900d3
:1020680000007800c108200080804000c0a0200047
:1020780000804000104090000004a2000004e0002e
:10208800020032000040eb002f0037009e0078006d
:10209800e00820000088b900000078000104200052
:1020a80080804000c0a0200000804000100178001f
:1020b8009e007800e00820000088b9000000780041
:1020c8002104200080804000c0a020000080400043
:1020d80010007800800f51000200320010c0b300d9
:1020e800190037001e0078000000e00003003200ed
:1020f800e10f50000a003200120037001111800071
:10210800001020000080600000f0a7000000ea0036
:102118000000e9004f00de00004078000a003700a8
:1021280091118000001020000080600000f0a700de
:102138000000ea000000e9004f00de0000407800df
:10214800010037000040eb000080fa0000000600a4
:102158000200fa00000f78001e007800b3fb0700a9
:102168000004a2000004e0000c003a009e00780081
:10217800e00820000088b90000007800c1082000ad
:1021880080804000c0a020000080400010409000e7
:102198000004a2000004e000020032000000eb008e
:1021a800130037009e007800e00820000088b9007e
:1021b800000078006108200080804000c0a0200056
:1021c800808140009e007800e00820000088b90067
:1021d800000078004108200080804000c0a0200056
:1021e80000804000020420008300780079fb07008b
:1021f8000080fa00000006000600fa0010079800a8
:10220800210798001e00900088fb07000004a20028
:102218000004e0000f003a009e009000e008200053
:102228000088b90000007800c108200080804000c4
:10223800c0a0200000804000104090000004a200d0
:102248000004e00003003a002e0090000000e000c7
:1022580002003a000040eb001c0037009e0090008e
:10226800e00820000088b90080007800c0a02000a5
:10227800008f40001e007800b08090001e0078009b
:1022880020809000808f500002003a000040eb0050
:102298000e0037001e007800308090009e00780005
:1022a8004004b000e14078002e009000014878001a
:1022b8001e007800308090000104200038fb0700e1
:1022c8009e007800b080980010c0b3000080fa002b
:1022d800000006000800fa0010079800210798007f
:1022e800320798000000eb00000f78002e009000e5
:1022f8000000e00003003a000000eb000d0037008a
:102308001e0fe8003e0090009e007800808f50006d
:10231800070031002e0090001e0040008000780069
:102328001e009000b4ff07000004e000f4ff3a002c
:102338001e0078000080fa00000006000200fa0083
:10234800000f78001e00780038fb07000004a20088
:102358000004e00011003a009e007800e008200028
:102368000088b90000007800410820008080400003
:10237800c0a0200000804000100178009e00780076
:10238800e00820000088b9008000780020a920001b
:1023980000804000020878000100370000000000bb
:1023a8000080fa00000006000200fa00000f780022
:1023b8001e0078001dfb07000004a2000004e000d6
:1023c800020032000040eb00090037009e00780050
:1023d800e00820000088b90000007800c10820004b
:1023e80080804000c0a0200000804000104078009d
:1023f8000080fa00000006000200fa00000f7800d2
:102408001e00780009fb07000004a2000004e00099
:1024180009003a009e007800e00820000088b90012
:102428008000780080a92000008040008040eb00f8
:102438000148780001003700000000000080fa0021
:10244800000006000a00fa00400798000000eb00b0
:10245800000f7800010037001e0fe8004e009000c2
:102468001e004000104078000004e000faff3a0027
:102478001e0078000000d100200798000000eb0043
:1024880010079800190037001e0090001e00100069
:102498000000e900ce0090000080400090407800e5
:1024a800614798001e0090001e0010000000e9001f
:1024b800ce009000008040004e0190009e009000e9
:1024c800810041009140780001487800ce009000da
:1024d8001e00900000804000ee4090000148780007
:1024e8001e0090000000e800100798009e00900071
:1024f8002e009000808f5000e3ff39000080fa0022
:10250800000006000600fa0010079800210798004e
:102518000000eb00000f78001e007800ae0090006d
:10252800808140001e019000d0cc2c000010b80023
:102538004308de006a00b90000007800000051007e
:10254800004078000043b000804978009e00900069
:10255800d0cc2c000008b8004308de001007980013
:102568001e0fe8001e0090000000e000eaff3a009d
:102578001e007800ae009000008040008040eb0014
:10258800014878002e009000aeff07000080fa0096
:10259800000006000600fa00000f780011079800f6
:1025a800424798004e4090000004e00007003200c7
:1025b8001e007800900078001e00900081007000d6
:1025c8001e00780001087800070037001e00780018
:1025d800900078001e0090000080ea008080600073
:1025e8001e007800010878000080fa00000006004c
:1025f8000200fa00000f78001e00780030009000fa
:102608000000e000090032001e0078003000900051
:102618009e007800b1009000110178009e007800bb
:10262800f100900082807000010878000080fa00b4
:10263800000006000200fa00000f78001e00780073
:1026480030509000e14f500002003200300020006e
:102658001d0037007207a9001e007800e4ff07007c
:102668001e007800e00090001e00780040009000f6
:102678000041eb00c7ff07001e007800e000900053
:102688001e007800100078000041eb00c1ff070031
:10269800fc62a900210c800080ff2f0000806000f0
:1026a800200c88008461a9008221ef008021ef00be
:1026b800210c800080ff2f00008060006000b300c4
:1026c800200c88000000eb000080fa0000000600e3
:1026d8000600fa00ab020700200798002e009000c1
:1026e8008000eb0061014000e0814800e05b800071
:1026f8008000eb00009ab90004027800028bb90050
:1027080086027800050242000010b800010242006b
:1027180084007800f2ff2f0003002000e9f707008b
:10272800008fbe002e0090008000eb00be0f50000e
:10273800ae8f5800060031002e009000e10f4000d7
:10274800030032002e0090008000eb00008fbe00d6
:102758001e007800000c88000080fa0000000600c7
:102768000000fa00005b8000e30f500004003a000c
:10277800105b8000e50f500001003a00d4ff07000d
:102788000080fa00000006000600fa001007980012
:10279800210798001e009000c200dd0080b22000d2
:1027a800008f40001e007800100078000000e00054
:1027b800050032001e007800900078002e0090007e
:1027c800808f500005003a001e007800ae0090008f
:1027d800010878000000eb0001003700200020000d
:1027e8000080fa00000006000400fa00000f7800dc
:1027f800110798001e007800c200dd0080b220009a
:1028080000804000900078001e009000808f5000eb
:1028180006003a001e007800c200dd0080b22000e9
:10282800008040008000eb00010878000080fa007a
:10283800000006000a00fa003007980041079800d7
:102848003e0090007400b900800078000062280003
:10285800008040001007980010002000000f78004a
:102868004e009000e40f500003003a0020002000c2
:10287800000f7800050037004e009000e50f50006b
:1028880002003a0030002000000f78009e00780017
:102898003e009000bcff0700200798002e00900023
:1028a8000000e000020032002e0090009400370083
:1028b8001e009000500090000000e0000a00320066
:1028c8001e009000500090009e009000d1009000e3
:1028d800110178009e009000810890008180ea0034
:1028e80081006100010878001e00900040009000ff
:1028f8000000e000060032001e009000e00090009a
:102908001e009000400090000041eb0021ff0700ee
:102918004e009000e20f50002d003200e20f5000f0
:1029280005003e000000e0000a003200e10f500000
:102938001100320063003700e40f50003c00320001
:10294800e40f50002b003900e50f50005200320010
:102958005c0037001e00900025ff07001e00900055
:10296800e00090001e0090001000780012c0b30034
:1029780008ff07005b0037001e0090001cff0700df
:102988001e009000e00090001e00900010007800eb
:1029980012c0b300fffe07001e0090005000900018
:1029a8000000e0004c0032001e0090005000900033
:1029b8009e009000d1009000110178009e009000c8
:1029c8008108900082807000010878004500370077
:1029d8001e00900006ff07001e009000e000900017
:1029e8001e009000100078000041eb00e9fe07008f
:1029f8003c0037001e009000fdfe07001e009000fe
:102a0800e00090001e0090004000900012c0b3004b
:102a1800e0fe07001e009000e00090001e009000fd
:102a2800100078000041eb00dafe07002d003700a7
:102a38001e009000300090000000e00005003a0001
:102a48009e0078003e00900067ff070030002000dd
:102a58002b0037001e009000e00090001e00900040
:102a68001000780012c0b300cafe07001e009000d4
:102a7800300090009e009000b10090001101780095
:102a88009e009000f10090008180ea0081006100c2
:102a980001087800130037001e009000e5fe0700cb
:102aa800200798002e0090000000e0000c00320083
:102ab8009e0078003e0090004bff07002e0090001b
:102ac8000f0037009e0078003e00900046ff070088
:102ad800100020000a003700000000000100370045
:102ae800000000003e009000c200dd00a0b22000ff
:102af80000804000ce009000010878000000eb0044
:102b08000080fa00000006000800fa00200798007c
:102b1800310798002e0090007400b90080007800fa
:102b280000622800008f4000110020002e00900055
:102b380015ff0700100798001e0090000000e00035
:102b4800020032001e009000080037003e0090008e
:102b5800004178001e007800e00090001e00780018
:102b6800200090008bfe07000000eb000080fa00b8
:102b7800000006000400fa00100798001e009000ec
:102b88007400b9008000780000622800008f4000bf
:102b98001e00780010009000900078001e00780059
:102ba800600090000080600000f0a7000000ea00cc
:102bb8000000ea004f00de000080fa000000060076
:102bc8000600fa00200798002e0090007400b90053
:102bd8008000780000622800008f4000110020006b
:102be8002e009000e8fe0700100798001e009000d5
:102bf8000000e000020032001e0090000a003700ca
:102c08001e007800200090009e007800a10090002f
:102c1800110178009e007800e100900081006900b1
:102c2800010878000000eb000080fa0000000600b0
:102c38000400fa00100798001e0090007400b90004
:102c48008000780000622800008f40001e00780095
:102c5800300090000000e000050032002100200054
:102c68001e009000c8fe07000000e00002003200cd
:102c78000000eb003b0037007007a9001e00780039
:102c8800e00090001e0078001000780012c0b30029
:102c980040fe07001e007800300090009e0078007b
:102ca800b1009000110178009e007800f1009000ba
:102cb8008180ea00810061000108780021e3a90011
:102cc80001198000f0cf2f000080600000198800f3
:102cd80001198000000e2000010070000019880012
:102ce8002043a9002223ef0025e3a9002119800031
:102cf800f00f2e000080600000c0a000201988009e
:102d08002119800000fc2f00008060000010a00046
:102d18002019880028e3a9001e00780020509000a0
:102d28006f4060000080fb006f0060004219800067
:102d380001ff2f0081006100010070004019880028
:102d480021e3a8002003a9002023a8000000000018
:102d580000198000610060000000e000fcff320004
:102d6800001880000080fa00000006000800fa0041
:102d780020079800310798002e0090007400b900d1
:102d88008000780000622800008f40002e0090002c
:102d98004200dd008080e80080b220000080400012
:102da80010007800e50f50000200320030002000cb
:102db8001b0037002e0090004200dd008080e800f4
:102dc80080b220000080400010007800e50f50001d
:102dd80006003a001e00780030509000e14f500085
:102de80002003200300020000d00370031002000c2
:102df8002e00900064fe0700100798001e00900047
:102e08000000e000020032001e00900004003700bd
:102e1800be009000e15b88002dfe07000000eb007b
:102e28000080fa00000006000a00fa00009fbe00b9
:102e38000297be00440798004e0090008000eb0007
:102e48006011b8003e02be002e03be002ff7070037
:102e580004242400f50020006033b8002bf7070095
:102e680004482800e50120006033b800bef60700da
:102e78000000be000080fa00000006000800fa000a
:102e8800889fbe008a9fbe00a00480004300de0029
:102e980061406000604798009460a900c25c8000af
:102ea800d35c8000028fbe000308800023079800cf
:102eb80020048000680060000000e0000600320086
:102ec80012002000030020001e0f41005e974900f9
:102ed80003088000230798006e409000614060005e
:102ee8000080fb00610060004300dd00a104800059
:102ef8000130a10001007000a00488001e04be007b
:102f08006055b800905c80006102b8006033b8007a
:102f180010002000010020006011b80000004200ed
:102f280081804a0002014b0083814b000203be00ee
:102f38000002be000800be000a01be00f3f607004a
:102f48000203be000002be002e0090008000eb00cd
:102f58006011b8000000420081804a0002014b0065
:102f680083814b004f05be004f04be000080fa006d
:102f7800000006000000fa007167a90005e1a90039
:102f88000421a9000441a90004c1a9002108800066
:102f9800f0fc2f000080600020088800982bef00cc
:102fa8009a2bef000080eb00905c88001000200056
:102fb800a05c88000021ef00905c80001008880069
:102fc8008460a9009460a80005e1a8000000eb0057
:102fd8000080fa00000006000000fa000500070063
:102fe800823e200003002000b6f507000080fa00aa
:102ff800000006000000fa00881f7800a85c800026
:103008009eff07000802780087ff07004f0478003a
:103018000080fa00000006000a00fa00889fbe003f
:103028008a9fbe0030079800410798003e00900034
:10303800ce009000e00f5000e08f580002003a00e8
:10304800300020004b0037000040eb00004f7800b4
:10305800440037001e80fb00c200dd00407c2800d1
:1030680000804000100078006104b8006055b80086
:103078003e009000ce0090006011b8000203be0030
:103088000002be000800be000a01be009ff607004d
:103098000203be000002be0000482800e101200033
:1030a8006011b80030f60700100798002107980053
:1030b8001e009000ae009000e00f5000e08f580016
:1030c800270032001e019000ae0190000000200091
:1030d80011002000800f5100818f590020003e0010
:1030e8001e0090000000e900b05c88007187a9000c
:1030f80011e1a9001021a9001061a90010c1a900bf
:103108001e80fb004200dd008080e800407c280033
:103118000080400010407800634060000080fb00a1
:10312800630060004400dd0082088000f1fc2f008d
:10313800810061000100700080088800b05c800098
:10314800600888000621ef0084e0a90094e0a90047
:1031580011e1a80082fd07000000eb000500370020
:103168001e4fe8001e407800e34f5000b9ff3600bc
:10317800300020004f05be004f04be000080fa005a
:10318800000006000000fa00b05c80000080fa0031
:10319800000006000e00fa0020079800310798008a
:1031a800420798005307980064079800de009000d3
:1031b800010f7800805c8000e70f50002b003e0074
:1031c8002e009000de009000110098002e00900064
:1031d800ee00900021009800be0090001e007800cc
:1031e800010878001e8fe8001e0078008000eb00c0
:1031f800010878001e8fe800ce0090001e007800bd
:10320800010878001e8fe8001000200010079800c1
:10321800070037001e0078008000eb0001087800e6
:103228001e8fe8001e0090000000e80010079800bc
:103238001e009000ee0f5000f6ff34002e009000a4
:103248001e087800805c80008000400000b82000e4
:1032580000804000ae00900001087800805c80008b
:103268000000e800805c88000100370000000000d2
:103278000080fa00000006000200fa00000f780043
:10328800805c80000000e00002003a001e00780028
:1032980017003700e05c8000e10f400006003200b4
:1032a800e05c80008000400000b820000080400002
:1032b800100078001e087800e05c80000000e8003c
:1032c800e05c8800e15c8000805c8000808f5000ba
:1032d800010039009c2bef00e05c8000800040007a
:1032e80000b820000080400010007800100078002e
:1032f8000080fa00000006000000fa0013e1a900af
:103308001221a90012c1a900910880000003200021
:1033180001007000900888000a21ef0040e82100b1
:10332800700888004105800080ff2f000080600041
:103338000000a000400588008500a9009500a800ad
:1033480013e1a8000080fa00000006000600fa0059
:103358002007980020ff0700008fbe008000eb00c8
:1033680020002000e8fd07001100200030002000a8
:10337800e5fd0700f9ff37000600fa00200798006e
:1033880015ff0700008fbe0011002000200020005c
:10339800ddfd07008000eb0030002000dafd0700ab
:1033a800f9ff37000400fa00f2fe070021002000b0
:1033b800200020001ffd0700210020003000200011
:1033c8001cfd07000000eb00000f78000000eb0078
:1033d8001007980004082000038020000e017800e0
:1033e800a19a210000a020006aff07000e80e800d3
:1033f800040820000390200000017800019c2100af
:1034080060a0200063ff0700bbff0700ffff370035
:10341800801f7800811f7800821f7800831f780042
:10342800841f7800851f7800861f7800871f780022
:10343800881f7800891f78008a1f78008b1f780002
:103448008c1f78008d1f78008e1f78008500a900da
:103458000f00780040190200000000008007780083
:103468004f077800cf0678004f067800cf05780020
:103478004f057800cf0478004f047800cf03780018
:103488004f037800cf0278004f027800cf01780010
:103498004f017800cf0078004f0078000040060008
:020000040000fa
:1034a800280b000056000000000000000c0a000075
:1034b8001c01000000000000980b00000400000040
:1034c80000000000920b000006000000020000004f
:1034d800ffff010000ffff007e0b0000140000004a
:1034e800000000009c0b0000020000000200000029
:1034f800ffff0000000800000c02000000000000b0
:0435080000000000bf
:00000001FF
