:020000040000fa
:04005c00e0020000be
:020000040000fa
:04001000e00200000a
:020000040000fa
:04025c00e0020000bc
:020000040000fa
:04021000e002000008
:020000040000fa
:04027400e0020000a4
:020000040000fa
:04033400e0020000e3
:020000040000fa
:04035c00e0020000bb
:020000040000fa
:04027000e0020000a8
:020000040000fa
:04034800e0020000cf
:020000040000fa
:04022c00e0020000ec
:020000040000fa
:04022800e0020000f0
:020000040000fa
:04027800e0020000a0
:020000040000fa
:04029c00e00200007c
:020000040000fa
:04026000e0020000b8
:020000040000fa
:04027c00e00200009c
:020000040000fa
:04028000e002000098
:020000040000fa
:04028400e002000094
:020000040000fa
:04028800e002000090
:020000040000fa
:04028c00e00200008c
:020000040000fa
:04029000e002000088
:020000040000fa
:04029400e002000084
:020000040000fa
:04029800e002000080
:020000040000fa
:0402a800e002000070
:020000040000fa
:0402ac00e00200006c
:020000040000fa
:0402b000e002000068
:020000040000fa
:0402b400e002000064
:020000040000fa
:0402b800e002000060
:020000040000fa
:0402bc00e00200005c
:020000040000fa
:0402c000e002000058
:020000040000fa
:0402c400e002000054
:020000040000fa
:04023800e0020000e0
:020000040000fa
:0402c800e002000050
:020000040000fa
:0402cc00e00200004c
:020000040000fa
:0402d000e002000048
:020000040000fa
:0402d400e002000044
:020000040000fa
:0402d800e002000040
:020000040000fa
:0402dc00e00200003c
:020000040000fa
:0402e000e002000038
:020000040000fa
:0402e400e002000034
:020000040000fa
:0402e800e002000030
:020000040000fa
:0402ec00e00200002c
:020000040000fa
:04023c00e0020000dc
:020000040000fa
:0402f000e002000028
:020000040000fa
:0402f400e002000024
:020000040000fa
:0402f800e002000020
:020000040000fa
:0402fc00e00200001c
:020000040000fa
:04030000e002000017
:020000040000fa
:04030400e002000013
:020000040000fa
:04030800e00200000f
:020000040000fa
:04030c00e00200000b
:020000040000fa
:04031000e002000007
:020000040000fa
:04031400e002000003
:020000040000fa
:04024000e0020000d8
:020000040000fa
:04031800e0020000ff
:020000040000fa
:04031c00e0020000fb
:020000040000fa
:04032400e0020000f3
:020000040000fa
:04032800e0020000ef
:020000040000fa
:04033800e0020000df
:020000040000fa
:04033c00e0020000db
:020000040000fa
:04034000e0020000d7
:020000040000fa
:04034400e0020000d3
:020000040000fa
:04034c00e0020000cb
:020000040000fa
:04035000e0020000c7
:020000040000fa
:04035400e0020000c3
:020000040000fa
:04035800e0020000bf
:020000040000fa
:04026c00e0020000ac
:020000040000fa
:04021800e002000000
:020000040000fa
:04026400e0020000b4
:020000040000fa
:04023000e0020000e8
:020000040000fa
:04020c00e00200000c
:020000040000fa
:04032000e0020000f7
:020000040000fa
:04020800e002000010
:020000040000fa
:04021c00e0020000fc
:020000040000fa
:04022000e0020000f8
:020000040000fa
:04022400e0020000f4
:020000040000fa
:04026800e0020000b0
:020000040000fa
:04024c00e0020000cc
:020000040000fa
:04025000e0020000c8
:020000040000fa
:04021400e002000004
:020000040000fa
:04023400c8020000fc
:020000040000fa
:04024400e0020000d4
:020000040000fa
:04024800e0020000d0
:020000040000fa
:04032c00e0020000eb
:020000040000fa
:04025400e0020000c4
:020000040000fa
:04025800e0020000c0
:020000040000fa
:04033000e0020000e7
:020000040000fa
:0402a000e002000078
:020000040000fa
:0402a400e002000074
:020000040000fa
:04007400e0020000a6
:020000040000fa
:04013400e0020000e5
:020000040000fa
:04015c00e0020000bd
:020000040000fa
:04007000e0020000aa
:020000040000fa
:04014800e0020000d1
:020000040000fa
:04002c00e0020000ee
:020000040000fa
:04002800e0020000f2
:020000040000fa
:04007800e0020000a2
:020000040000fa
:04009c00e00200007e
:020000040000fa
:04006000e0020000ba
:020000040000fa
:04007c00e00200009e
:020000040000fa
:04008000e00200009a
:020000040000fa
:04008400e002000096
:020000040000fa
:04008800e002000092
:020000040000fa
:04008c00e00200008e
:020000040000fa
:04009000e00200008a
:020000040000fa
:04009400e002000086
:020000040000fa
:04009800e002000082
:020000040000fa
:0400a800e002000072
:020000040000fa
:0400ac00e00200006e
:020000040000fa
:0400b000e00200006a
:020000040000fa
:0400b400e002000066
:020000040000fa
:0400b800e002000062
:020000040000fa
:0400bc00e00200005e
:020000040000fa
:0400c000e00200005a
:020000040000fa
:0400c400e002000056
:020000040000fa
:04003800e0020000e2
:020000040000fa
:0400c800e002000052
:020000040000fa
:0400cc00e00200004e
:020000040000fa
:0400d000e00200004a
:020000040000fa
:0400d400e002000046
:020000040000fa
:0400d800e002000042
:020000040000fa
:0400dc00e00200003e
:020000040000fa
:0400e000e00200003a
:020000040000fa
:0400e400e002000036
:020000040000fa
:0400e800e002000032
:020000040000fa
:0400ec00e00200002e
:020000040000fa
:04003c00e0020000de
:020000040000fa
:0400f000e00200002a
:020000040000fa
:0400f400e002000026
:020000040000fa
:0400f800e002000022
:020000040000fa
:0400fc00e00200001e
:020000040000fa
:04010000e002000019
:020000040000fa
:04010400e002000015
:020000040000fa
:04010800e002000011
:020000040000fa
:04010c00e00200000d
:020000040000fa
:04011000e002000009
:020000040000fa
:04011400e002000005
:020000040000fa
:04004000e0020000da
:020000040000fa
:04011800e002000001
:020000040000fa
:04011c00e0020000fd
:020000040000fa
:04012400e0020000f5
:020000040000fa
:04012800e0020000f1
:020000040000fa
:04013800e0020000e1
:020000040000fa
:04013c00e0020000dd
:020000040000fa
:04014000e0020000d9
:020000040000fa
:04014400e0020000d5
:020000040000fa
:04014c00e0020000cd
:020000040000fa
:04015000e0020000c9
:020000040000fa
:04015400e0020000c5
:020000040000fa
:04015800e0020000c1
:020000040000fa
:04006c00e0020000ae
:020000040000fa
:04001800e002000002
:020000040000fa
:04006400e0020000b6
:020000040000fa
:04003000e0020000ea
:020000040000fa
:04000c00e00200000e
:020000040000fa
:04012000e0020000f9
:020000040000fa
:04000800e002000012
:020000040000fa
:04001c00e0020000fe
:020000040000fa
:04002000e0020000fa
:020000040000fa
:04002400e0020000f6
:020000040000fa
:04006800e0020000b2
:020000040000fa
:04004c00e0020000ce
:020000040000fa
:04005000e0020000ca
:020000040000fa
:04001400e002000006
:020000040000fa
:04004400e0020000d6
:020000040000fa
:04004800e0020000d2
:020000040000fa
:04012c00e0020000ed
:020000040000fa
:04005400e0020000c6
:020000040000fa
:04005800e0020000c2
:020000040000fa
:04013000e0020000e9
:020000040000fa
:0400a000e00200007a
:020000040000fa
:0400a400e002000076
:020000040000fa
:080000000002040000000000f2
:020000040000fa
:100400000f8f20000edf20000e018800000000008a
:10041000000020000000e000020032000001200087
:100420002002880014000700670007000000e000b9
:1004300003003a00a0f9200001002000020037006c
:100440000000200001002000810f70000100320038
:1004500014000700000020000000e000020032004d
:100460000000020000000000501002000000000028
:100470000040da000000fe004440a900c015200042
:100480000000e0000300320000002000a00188000e
:100490004440a800000006008a1f78008b1f7800e7
:1004a0000000060091018800800478000000eb0045
:1004b0001a003700e284440032a0b4009905ba0063
:1004c000e284440032a0b4009906ba00e2844400f9
:1004d00032a0b4000006eb00476fde00fd07b2005b
:1004e000636ce10003003a00ebff07000000eb0043
:1004f0000a003700606ce10004003a00005deb0088
:100500008b05e900fdff3e00040037006168e10053
:10051000010032000086eb000b00070019c7ba008b
:100520001905ba000e04e00003003a000a00e000da
:10053000e0ff3a0000000600fe07b2009e018800be
:100540008a047800f5ff3700395dba008b05e900b1
:100550000c003200295dba008b05e900080032006a
:100560000c00e00003003a00e284440032a0b40032
:10057000f5ff370019ddba008b05e900faff3a00f4
:100580008904e800e184440032a0b40000000600c1
:10059000809fbe000000fa00504780006147800045
:1005a00061004000e08048005047880061478800b3
:1005b0008460a9000080fa004f00be0000400600e1
:1005c0000040da000000fe00000005006022b800d4
:1005d000060220000000d0008180d2000482d200f8
:1005e0008582d2000000a0000202520083825a00dd
:1005f000030031000202420083824a000000a10091
:100600000603e900f3ff3a0000000600889fbe00e1
:100610008a9fbe0030044200b0844a0030054b007f
:1006200090854b006000b1000898be000a90be00a3
:100630000440e10005c8e10006d0e10007d8e10070
:1006400002003100680040001008e8004f05be00bd
:100650004f04be0000000600889fbe008a9fbe00b7
:100660003004be002005be000418540005985c004c
:1006700006185d0007985d00110020000440e100ad
:1006800005c8e10006d0e10007d8e100010039000b
:100690008000eb00108810004f05be004f04be0024
:1006a000000006001200fa00889fbe008a9fbe006c
:1006b0008c9fbe00e0b79f00f1b79f0082bf9f00f4
:1006c00093bf9f000605be000404be000000eb00bf
:1006d000d0b79f00c0b79f00b0b79f00a0b79f00e2
:1006e00090b79f00000678005fb19700cfb09700e9
:1006f000820141003fb097000200e00004003d008d
:10070000370007007e805700c0ff07000300370056
:10071000330007007e805700cfff0700dfb6970049
:100720000d00e0000c0035006fb29700ffb297009b
:100730000fbb97009fbb9700100020000100200016
:100740006011b8000002720081827200020373001f
:10075000838373001b0007000c06e80001042000df
:10076000810f5600e0ff3a000d00e00004003d005c
:100770000802be000a03be007e805700a3ff0700e8
:100780005fa897000000e00005003a001fb2970044
:10079000afb297003fb39700cfb3970009000700af
:1007a0006fb09700ffb097000fb997009fb99700ff
:1007b0004f06be004f05be004f04be000080fa0089
:1007c000000006000100070000000600a4b79f001b
:1007d000b5b79f00c6b79f00d7b79f0000000600bf
:1007e0004f09de0082817100b3b79f004f01de0028
:1007f0008180400082807000a1b79f008fb0970079
:100800004f09de00000040000200700090b79f001a
:100810007fa897004f01de00818040008280700039
:1008200081b79f000d0007004f3ade000000400036
:1008300004007000f0af9f000800070004024200af
:1008400085824a0006034b0087834b00dfff0700c9
:100850000802be000a03be00000006002fb2970087
:10086000bfb297004fb39700dfb3970000000600b8
:10087000881f780018002000881f780089ff070073
:100880008f87e9004f04780000000600801feb000e
:1008900084ff07008f87e90000000600889fbe00e4
:1008a0008a9fbe00e00f5000e08f5800e00f590013
:1008b000e08f59000c003d006044b8006055b8005e
:1008c0000000540081805c0002015d0083815d00b6
:1008d000180020001500070008003d001800070060
:1008e0000004eb00050037000004eb000f000700d8
:1008f00002003d001200070018002000dcff070086
:100900000800e000060032006022b8006033b80042
:100910000000520081805a0002015b0083815b006d
:100920004f05be004f04be0000000600e00f52005d
:10093000e08f5a00e00f5b00e08f5b0000000600d4
:100940006044b8006055b8000402540085825c0021
:1009500006035d0087835d0000000600889fbe00df
:100960008a9fbe008c1f7800e00f5000e08f580077
:10097000e00f5900e08f59000d003d006044b800c1
:100980006055b8000000540081805c0002015d00e9
:1009900083815d001c0020000820e10009a8e1001f
:1009a0000ab0e1000bb8e1000d003d00080037007f
:1009b0000006eb00e00f5200e08f5a00e00f5b00f2
:1009c000e08f5b0006003d006044b8006055b80051
:1009d0000402540085825c0006035d0087835d008d
:1009e000aaff07000c00e000060032006022b800f9
:1009f0006033b8000000520081805a0002015b00a1
:100a000083815b004f0678004f05be004f04be0097
:100a100000000600889fbe008a9fbe008c1f7800e1
:100a20000006eb00e00f5000e08f5800e00f590087
:100a3000e08f590007003d006044b8006055b800e1
:100a40000000540081805c0002015d0083815d0034
:100a50001c002000e00f5200e08f5a00e00f5b0006
:100a6000e08f5b0007003d006044b8006055b800af
:100a70000402540085825c0006035d0087835d00ec
:100a80000c00a2000c0007000c00e0000600320081
:100a90006022b8006033b8000000520081805a0024
:100aa00002015b0083815b004f0678004f05be00aa
:100ab0004f04be0000000600889fbe008a9fbe0053
:100ac0008c9fbe000404b8000506b80089044600e7
:100ad00060854e000606b8000a054600e0854e0017
:100ae0000706b8008b054600040eb80089044600ce
:100af0000a854e00e0854d00050eb8000a05460047
:100b00008b854e00060eb8008b0546000416b80013
:100b10000a0546008b854e000516b8008b05460079
:100b2000041eb8008b0546000800be000a01be0086
:100b30004f06be004f05be004f04be000000060079
:100b4000810178000002780030417800b14f5100f7
:100b500002003a000204e000f9ff3a009480fb0032
:100b60001380fb000080500000000600881f780002
:100b700000047800080078000300070008007800ef
:100b80004f04780000000600010178008001780021
:100b9000008268000408a30005003200130037003b
:100ba00032407800805978000004e00014003200e0
:100bb000030278000208a300f9ff3a00030078005e
:100bc000010037000318780082007800b201780035
:100bd000f5ef2f00838242000382ea000482620064
:100be0000508280005026200f6ff320000027800c6
:100bf00031417800025878000204e000fbff3a001f
:080c000004007800000006006a
:020000040000fa
:04003400c8020000fe
:020000040000fa
:0200000401f009
:040014005f00000089
:020000040000fa
:100c080050720000696e0000746900006e67000091
:100c180020520000434f00004e2000006c6f00007f
:100c2800670d00000a000000205400005241000037
:100c38005052000020000000204900004f500000e2
:100c480055570000522000000020000044500000ca
:100c5800534c0000502000000020000045580000c0
:100c6800545200002000000020530000575200009a
:100c78002000000020570000445400004f200000ce
:100c880000200000534c00004545000050200000a3
:100c980000200000494400004c45000020000000ee
:100ca800204200004f5200002000000020500000a9
:100cb8004f520000200000000d0a0000526500009d
:100cc80073650000746900006e6700002052000020
:100cd800434f00004e20000062690000747300005a
:100ce8000d0a000000500000726900006e740000d8
:100cf800696e000067200000494e00005443000060
:100d08004f4e0000206c00006f6700000d0a0000c5
:100d1800002000004d4100005448000045520000ea
:100d2800522000000020000041440000445200000e
:100d380045520000522000000020000053540000db
:100d48004b4500005252000020000000204f0000d8
:100d58005343000046410000494c000020000000b9
:100d68000d0a0000526500007365000074690000f8
:100d78006e670000204900004e540000434f0000f9
:100d88004e20000062690000747300000d0a000024
:100d9800000d00000a4500006e640000204f0000ae
:100da800662000004465000062750000670d0000c1
:100db8000a000000486500006c6c00006f2000000d
:100dc800576f0000726c000064000000554100007d
:100dd8005254000020720000656100006479000030
:100de8000d0a0000006400006562000075670000dd
:100df8000070000061730000737700006f720000dc
:100e080064000000436f0000727200006563000018
:100e1800742000005061000073730000776f0000b9
:100e2800726400000d0a0000004900006e630000b3
:100e38006f720000726500006374000020500000ab
:100e480061730000737700006f720000640d00008a
:100e58000a0000003e00000060000000680000007a
:100e680070000000620000006a00000072000000cc
:100e7800c0020000c2020000c4020000c602000056
:100e880000000000c8020000ca020000cc020000f6
:100e9800ce02000000000000010000000000000079
:100ea80008000000010000004000000002000000ef
:080eb80000010000030000002e
:020000040000fa
:100ec0000400fa00000f7800110798001e0090003f
:100ed000e20f5000ed003200e20f500005003e002e
:100ee0000000e00008003200e10f5000080032006e
:100ef000c6013700e30f500075003200e40f5000c8
:100f000051013200c10137000000eb00c001370081
:100f10001e0078006c00b90080007800008020007e
:100f20000080400010007800100178001e0078005a
:100f30006c00b90080007800008020000080400034
:100f40001000780010007800900178001e007800f2
:100f50006c00b900000078008080e800008020006c
:100f60000080400010007800030070000009780045
:100f70001e0078006c00b90080007800008020001e
:100f80000080400010007800300190001e007800c2
:100f90006c00b900800078000080200000804000d4
:100fa0001000780030009000900178001e0078005a
:100fb0006c00b900000078008080e800008020000c
:100fc00000804000100078000080ea00008061008e
:100fd000000978001e0078006c00b900000078005d
:100fe000e8004000008020000080400010007800f1
:100ff000200190001e0078006c00b900000078000d
:10100000e8004000008020000080400010007800d0
:1010100020009000900178001e0078006c00b9005c
:1010200000007800ea0040000080200000804000be
:10103000100078000080ea0000806100000978005c
:101040001e0078006c00b90000007800e800400045
:101050000080200000804000100078001001900007
:101060001e0078006c00b90000007800e800400025
:1010700000802000008040001000780010009000e8
:10108000900178001e0078006c00b9000000780024
:10109000ea0040000080200000804000100078003e
:1010a0000080ea0000806100000978001e007800de
:1010b0006c00b90080007800408020000080400073
:1010c00011002000010878001000200050013700b6
:1010d0001e0078006c00b9008000780000802000bd
:1010e0000080400010007800100178001e00780099
:1010f0006c00b90080007800008020000080400073
:101100001000780010007800900178001e00780030
:101110006c00b900000078008080e80000802000aa
:101120000080400010007800030070000009780083
:101130001e0078006c00b90080007800008020005c
:101140000080400010007800300190001e00780000
:101150006c00b90080007800008020000080400012
:101160001000780030009000900178001e00780098
:101170006c00b900000078008080e800008020004a
:1011800000804000100078000080ea0000806100cc
:10119000000978001e0078006c00b900000078009b
:1011a000e80040000080200000804000100078002f
:1011b000100190001e0078006c00b900000078005b
:1011c000e80040000080200000804000100078000f
:1011d00010009000900178001e0078006c00b900ab
:1011e00000007800ea0040000080200000804000fd
:1011f000100078000080ea0000806100000978009b
:101200001e0078006c00b90000007800e800400083
:101210000080200000804000100078002001900035
:101220001e0078006c00b90000007800e800400063
:101230000080200000804000100078002000900016
:10124000900178001e0078006c00b9000000780062
:10125000ea0040000080200000804000100078007c
:1012600003007000000978001e0078006c00b900cf
:101270008000780040802000008040003100200085
:101280000108780010002000e10037001e007800ff
:101290006c00b900800078000080200000804000d1
:1012a00010007800100178001e0078006c00b90072
:1012b000800078000080200000804000100078004e
:1012c00010007800900178001e0078006c00b900d2
:1012d000000078008080e80000802000008040004e
:1012e0001000780003007000000978001e007800ec
:1012f0006c00b90080007800008020000080400071
:1013000010007800300190001e0078006c00b900d9
:1013100080007800008020000080400010007800ed
:1013200030009000900178001e0078006c00b90039
:10133000000078008080e8000080200000804000ed
:10134000100078000080ea00008061000009780049
:101350001e0078006c00b90000007800e800400032
:1013600000802000008040001000780020019000e4
:101370001e0078006c00b90000007800e800400012
:1013800000802000008040001000780020009000c5
:10139000900178001e0078006c00b9000000780011
:1013a000ea0040000080200000804000100078002b
:1013b0000080ea0000806100000978001e007800cb
:1013c0006c00b90000007800e800400000802000b8
:1013d0000080400010007800100190001e0078008e
:1013e0006c00b90000007800e80040000080200098
:1013f00000804000100078001000900090017800fc
:101400001e0078006c00b90000007800ea0040007f
:101410000080200000804000100078000300700071
:10142000000978001e0078006c00b9008000780088
:10143000408020000080400021002000010878004a
:1014400010002000720037001e0078006c00b90008
:1014500080007800008020000080400010007800ac
:10146000100178001e0078006c00b9008000780040
:1014700000802000008040001000780010007800fc
:10148000900178001e0078006c00b9000000780020
:101490008080e8000080200000804000100078007c
:1014a0000080ea0000806100000978001e007800da
:1014b0006c00b900800078000080200000804000af
:1014c00010007800300190001e0078006c00b90018
:1014d000800078000080200000804000100078002c
:1014e00030009000900178001e0078006c00b90078
:1014f000000078008080e80000802000008040002c
:10150000100078000080ea00008061000009780087
:101510001e0078006c00b90000007800e800400070
:101520000080200000804000100078002001900022
:101530001e0078006c00b90000007800e800400050
:101540000080200000804000100078002000900003
:10155000900178001e0078006c00b900000078004f
:10156000ea00400000802000008040001000780069
:101570000080ea0000806100000978001e00780009
:101580006c00b90000007800e800400000802000f6
:101590000080400010007800100190001e007800cc
:1015a0006c00b90000007800e800400000802000d6
:1015b000008040001000780010009000900178003a
:1015c0001e0078006c00b90000007800ea004000be
:1015d0000080200000804000100078000080ea00b9
:1015e00000806100000978001e0078006c00b900de
:1015f00080007800408020000080400041002000f2
:1016000001087800100020000100370000003700ba
:101610000080fa00000006000200fa00000f7800c7
:101620001e0078006c00b900800078000080200067
:101630000080400010007800100090001001780039
:101640001e0078006c00b900000078008080e8007f
:101650000080200000804000100078000000610041
:1016600000f0a7000000ea000000ea004f00de00e2
:101670000080fa00000006000400fa00000f780065
:10168000110798001e0090000000e00019003200d1
:101690001e0078006c00b9008000780000802000f7
:1016a0000080400010007800200190001e007800ab
:1016b0006c00b900800078000080200000804000ad
:1016c0001000780020009000900178001e00780043
:1016d0006c00b900000078008080e80000802000e5
:1016e00000804000100078000300700000097800be
:1016f000190037001e0078006c00b90080007800e7
:101700000080200000804000100078002001900040
:101710001e0078006c00b900800078000080200076
:1017200000804000100078002000900090017800b8
:101730001e0078006c00b900000078008080e8008e
:101740000080200000804000100078000080ea0047
:1017500000806100000978000080fa0000000600a7
:101760000200fa00000f78001e00780010007800d8
:10177000a9ff07009e007800900098001e007800e6
:1017800010089000e10f500024003200e10f5000db
:1017900005003900e20f50002c003200e30f50002a
:1017a00036003200560037001e007800900090008e
:1017b0001e00780020009000808f5000050032004d
:1017c000cc0107001e0178004001980051019800eb
:1017d0004b003700c70107000001be001e00780063
:1017e000d00090004000900000015100818159001c
:1017f0001e007800600090008000eb00800f510018
:10180000818f5900310036001e0078009000900052
:101810001e00780001089800390037001e0078008b
:10182000100090000000e0002a0032001e00780046
:10183000200090000000e00028003a001e00780020
:1018400011002000010898002d0037001e007800cc
:10185000100090000000e00022003a001e00780016
:10186000200090000000e000200032001e00780000
:101870001100200001089800210037001e007800a8
:10188000100090000000e00004003a001e00780004
:10189000200090000000e00008003a001e007800e0
:1018a000100090000000e000120032001e007800de
:1018b000200090000000e00010003a001e007800b8
:1018c00011002000010898000d0037000000000002
:1018d0000b00370000000000090037000000000086
:1018e000070037000000000005003700000000007e
:1018f0000300370000000000010037000000000076
:101900001e007800900090001e00780021009800d2
:101910000080fa00000006000400fa00000f7800c2
:10192000110798001e007800000890000000e000f9
:10193000050032001e0078008000eb0001089800ce
:1019400010002000010037000000eb000080fa00ca
:10195000000006000800fa002007980031079800f0
:10196000c8e2a900c842a8002022ef002222ef000e
:101970002e019000be0190004418dd00cc10de0066
:10198000810070004410dd000001be000048280006
:10199000e10120000dfb07000081eb008081eb00de
:1019a000021f4000039748001e0078004011880085
:1019b0002062a9000111800090ff2f0000806000cc
:1019c000001188002002a9002222a90021e2a8001b
:1019d0002342a8000080fa00000006000200fa007e
:1019e000004f78000000000011118000002020004e
:1019f000008060000000e000fbff3a001e4078001d
:101a00000080fb00201188000080fa000000060022
:101a10000200fa00000f7800040037001e00780072
:101a200010407800edff07001e0fe8001e00780050
:101a3000104078000004e000f8ff3a000080fa004f
:101a4000000006000400fa001007980005003700a7
:101a500010118000620060000000e0000100320010
:101a60002222a90010118000610060000000e00047
:101a7000f7ff320030118000004f78001e00900008
:101a80000000e000020032001e407800d3ff070093
:101a90001e4078000080fa00000006000000fa00f6
:101aa00010118000610060000000e00002003200c0
:101ab00010002000010037000000eb000080fa0059
:101ac000000006000800fa0020079800310798007f
:101ad0000000eb00000f78003e0090000000e000e6
:101ae00011003a000000eb00190037000000eb0085
:101af000d4ff0700204798002e409000ed4f500083
:101b00000e0032002e409000ea4f50000b003200d1
:101b10002e0090001e004000ae409000014878006a
:101b20001e0fe80001003700000000003e0090009a
:101b30000000e9009e0f5000ecff3e002e009000d8
:101b40001e0040008040eb00014878001e00780035
:101b50000080fa00000006000200fa00000f780082
:101b600040602800aaff0700013a8000000028001a
:101b7000008060000000e000020032008061280068
:101b8000a3ff0700013a80000000240000806000ed
:101b90000000e00002003200006228009cff070005
:101ba000013a800000402000008060000000e0005a
:101bb000020032009062280095ff0700013a800081
:101bc00000082000008060000000e00002003200f9
:101bd000106328008eff0700013a800000042000f7
:101be000008060000000e0000200320080632800f6
:101bf00087ff0700003a8000700060000000e000ee
:101c000002003200e063280081ff0700003a8000f4
:101c1000680060000000e00002003200506428000c
:101c20007bff0700003a8000640060000000e000d5
:101c300002003200d064280075ff0700003a8000df
:101c4000620060000000e0000200320040652800f1
:101c50006fff0700003a8000610060000000e000b4
:101c600002003200a065280069ff07001e0078000e
:101c70000000e0000c0032000066280064ff07004e
:101c800041e7a90041c7a9004147a90040e7a900d1
:101c900040c7a9004087a9004067a9004047a900a4
:101ca0004027a9004007a9007067280058ff0700d7
:101cb00000048000700060000000e00002003200bc
:101cc000d068280052ff0700000480006800600010
:101cd0000000e00002003200706928004cff07009d
:101ce00000048000640060000000e0000200320098
:101cf000106a280046ff07000004800062006000b0
:101d00000000e00002003200a06a280040ff070047
:101d10001e0078000000e00006003200406b280042
:101d20003bff07008080a9008060a9008040a900d7
:101d30008020a900d06c280035ff07000080fa0041
:101d4000000006000a00fa00009fbe000297be00d5
:101d5000440798004e0090008000eb006011b8002e
:101d60003e02be002e03be002afb0700042424000e
:101d7000f50020006033b80026fb07000448280067
:101d8000e50120006033b800b9fa07000000be008a
:101d90000080fa00000006000800fa00889fbe00dc
:101da0008a9fbe00a00480004300de006140600006
:101db000604798009460a900524780006347800004
:101dc000028fbe00030880002307980020048000d3
:101dd000680060000000e0000600320012002000f1
:101de000030020001e0f41005e9749000308800099
:101df000230798006e409000614060000080fb0067
:101e0000610060004300dd00a10480000130a100fa
:101e100001007000a00488001e04be006055b800d8
:101e2000204780006102b8006033b8001000200035
:101e3000010020006011b8000000420081804a00cb
:101e400002014b0083814b000203be000002be0072
:101e50000800be000a01be00eefa07000203be0041
:101e60000002be002e0090008000eb006011b80060
:101e70000000420081804a0002014b0083814b0038
:101e80004f05be004f04be000080fa0000000600af
:101e90000000fa007167a90005e1a9000421a9006a
:101ea0000441a90004c1a90021088000f0fc2f0012
:101eb0000080600020088800ea28ef00ec28ef008e
:101ec0000080eb0020478800100020003047880089
:101ed0000021ef0020478000100888008460a900de
:101ee0009460a80005e1a8000000eb000080fa0063
:101ef000000006000000fa0005000700823e2000f6
:101f000003002000b1f907000080fa00000006007d
:101f10000000fa00881f7800384780009eff070005
:101f20000802780087ff07004f0478000080fa005d
:041f300000000600a7
:020000040000fa
:101f3400ea0800000400000000000000e4080000bb
:101f44000600000002000000ffff010000ffff0088
:101f540000080000e400000002000000000000008f
:101f64000000000000000000000000003c8720008a
:101f74000000000000000000000000003c87010099
:101f84000000000000003000870400003c870200cd
:101f940000000000000030008708000046870100b0
:101fa4000000000000003000871000004687020097
:101fb4000000000000003000872000004687040075
:101fc4000000000000003000874000003c8704004f
:101fd4000000000000003600870040003c87080035
:101fe4000000000000003600870020004687100033
:101ff4000000000000003000870200003c87100051
:1020040000000000000030008701000046878000c7
:1020140000000000000036008780000046870000b2
:1020240001000000000036008740000046870000e1
:102034000200000000003600878000003c8740005a
:102044000000000000003000870001004687000007
:1020540010000000000030008700400046870000a8
:1020640020000000000030008700200046870000a8
:102074004000000000003000870010004687000088
:10208400800000000000300087000800ee08000017
:0c2094000200000000000000000000003e
:020000040000fa
:1020a0002800fa0040a7a90041002000c00020003d
:1020b00083fb0700e06d28002007980068004700b8
:1020c000ae009000a9fa070000582200010020008d
:1020d00020fe0700a06e28004dfe07000000eb0068
:1020e000300798000000eb00000f78000100370077
:1020f000000000000060fe001000200051fe0700fc
:10210000204798000b003700680047001e00400081
:10211000ae409000014878001e0fe800100020003b
:1021200048fe07002047980011002000c000200052
:1021300051fd07002e409000ed4f5000030032008b
:102140002e409000ea4f5000efff3a00d0c0b3009d
:1021500022fe0700a0c0b30020fe07006800470071
:102160001e0040008040eb00014878001000200075
:10217000300798000000eb00000f78003e00900050
:102180000000e000daff320068004700716f2800ad
:102190006bfa07000000e00002003a001000200087
:1021a0006dfe070068004700d16f280064fa070041
:1021b0000000e00003003a006070280014fe0700f1
:1021c000020037009071280011fe0700e07228001d
:1021d0000ffe07000000eb00300798008000eb00c6
:0c21e000c000200024fd0700c2ff3700f3
:00000001FF
